{"contracts/Jugador.sol":{"Jugadores":{"abi":[{"anonymous":false,"inputs":[{"indexed":true,"internalType":"address","name":"previousOwner","type":"address"},{"indexed":true,"internalType":"address","name":"newOwner","type":"address"}],"name":"OwnershipTransferred","type":"event"},{"inputs":[{"internalType":"string","name":"nombre","type":"string"},{"internalType":"uint256","name":"edad","type":"uint256"},{"internalType":"uint256","name":"cantidadBoletos","type":"uint256"}],"name":"addJugador","outputs":[{"internalType":"uint256","name":"","type":"uint256"}],"stateMutability":"nonpayable","type":"function"},{"inputs":[{"internalType":"uint256","name":"jugadorId","type":"uint256"},{"internalType":"uint256","name":"cantidad","type":"uint256"}],"name":"buyBoleto","outputs":[],"stateMutability":"nonpayable","type":"function"},{"inputs":[],"name":"getAllJugadores","outputs":[{"components":[{"internalType":"uint256","name":"jugadorId","type":"uint256"},{"internalType":"string","name":"nombre","type":"string"},{"internalType":"uint256","name":"edad","type":"uint256"},{"internalType":"uint256","name":"cantidadBoletos","type":"uint256"}],"internalType":"struct Jugadores.Jugador[]","name":"","type":"tuple[]"}],"stateMutability":"view","type":"function"},{"inputs":[{"internalType":"uint256","name":"jugadorId","type":"uint256"}],"name":"getJugadorById","outputs":[{"components":[{"internalType":"uint256","name":"jugadorId","type":"uint256"},{"internalType":"string","name":"nombre","type":"string"},{"internalType":"uint256","name":"edad","type":"uint256"},{"internalType":"uint256","name":"cantidadBoletos","type":"uint256"}],"internalType":"struct Jugadores.Jugador","name":"","type":"tuple"}],"stateMutability":"view","type":"function"},{"inputs":[{"internalType":"uint256","name":"","type":"uint256"}],"name":"jugadores","outputs":[{"internalType":"uint256","name":"jugadorId","type":"uint256"},{"internalType":"string","name":"nombre","type":"string"},{"internalType":"uint256","name":"edad","type":"uint256"},{"internalType":"uint256","name":"cantidadBoletos","type":"uint256"}],"stateMutability":"view","type":"function"},{"inputs":[],"name":"owner","outputs":[{"internalType":"address","name":"","type":"address"}],"stateMutability":"view","type":"function"},{"inputs":[],"name":"renounceOwnership","outputs":[],"stateMutability":"nonpayable","type":"function"},{"inputs":[{"internalType":"address","name":"newOwner","type":"address"}],"name":"transferOwnership","outputs":[],"stateMutability":"nonpayable","type":"function"}],"evm":{"bytecode":{"linkReferences":{},"object":"608060405234801561001057600080fd5b5060006100216100c460201b60201c565b9050806000806101000a81548173ffffffffffffffffffffffffffffffffffffffff021916908373ffffffffffffffffffffffffffffffffffffffff1602179055508073ffffffffffffffffffffffffffffffffffffffff16600073ffffffffffffffffffffffffffffffffffffffff167f8be0079c531659141344cd1fd0a4f28419497f9722a3daafe3b4186f6b6457e060405160405180910390a3506100cc565b600033905090565b6115a6806100db6000396000f3fe608060405234801561001057600080fd5b50600436106100885760003560e01c806361ca0b351161005b57806361ca0b351461013e578063715018a61461015a5780638da5cb5b14610164578063f2fde38b1461018257610088565b806312cd028d1461008d5780633c7f7509146100ab57806349480743146100db5780634aead46c1461010b575b600080fd5b61009561019e565b6040516100a29190610c29565b60405180910390f35b6100c560048036038101906100c09190610dc0565b610322565b6040516100d29190610e3e565b60405180910390f35b6100f560048036038101906100f09190610e59565b610434565b6040516101029190610ee9565b60405180910390f35b61012560048036038101906101209190610e59565b61055d565b6040516101359493929190610f55565b60405180910390f35b61015860048036038101906101539190610fa1565b610615565b005b6101626106fc565b005b61016c610836565b6040516101799190611022565b60405180910390f35b61019c60048036038101906101979190611069565b61085f565b005b606060006101ac6001610a07565b67ffffffffffffffff8111156101c5576101c4610c69565b5b6040519080825280602002602001820160405280156101fe57816020015b6101eb610a33565b8152602001906001900390816101e35790505b50905060005b61020e6001610a07565b81101561031a576002600060018361022691906110c5565b81526020019081526020016000206040518060800160405290816000820154815260200160018201805461025990611128565b80601f016020809104026020016040519081016040528092919081815260200182805461028590611128565b80156102d25780601f106102a7576101008083540402835291602001916102d2565b820191906000526020600020905b8154815290600101906020018083116102b557829003601f168201915b505050505081526020016002820154815260200160038201548152505082828151811061030257610301611159565b5b60200260200101819052508080600101915050610204565b508091505090565b600061032c610a15565b73ffffffffffffffffffffffffffffffffffffffff1661034a610836565b73ffffffffffffffffffffffffffffffffffffffff16146103a0576040517f08c379a0000000000000000000000000000000000000000000000000000000008152600401610397906111d4565b60405180910390fd5b6103aa6001610a1d565b60006103b66001610a07565b905060006040518060800160405280838152602001878152602001868152602001858152509050806002600084815260200190815260200160002060008201518160000155602082015181600101908161041091906113a0565b50604082015181600201556060820151816003015590505081925050509392505050565b61043c610a33565b6104466001610a07565b821115610488576040517f08c379a000000000000000000000000000000000000000000000000000000000815260040161047f906114be565b60405180910390fd5b60026000838152602001908152602001600020604051806080016040529081600082015481526020016001820180546104c090611128565b80601f01602080910402602001604051908101604052809291908181526020018280546104ec90611128565b80156105395780601f1061050e57610100808354040283529160200191610539565b820191906000526020600020905b81548152906001019060200180831161051c57829003601f168201915b50505050508152602001600282015481526020016003820154815250509050919050565b600260205280600052604060002060009150905080600001549080600101805461058690611128565b80601f01602080910402602001604051908101604052809291908181526020018280546105b290611128565b80156105ff5780601f106105d4576101008083540402835291602001916105ff565b820191906000526020600020905b8154815290600101906020018083116105e257829003601f168201915b5050505050908060020154908060030154905084565b61061d610a15565b73ffffffffffffffffffffffffffffffffffffffff1661063b610836565b73ffffffffffffffffffffffffffffffffffffffff1614610691576040517f08c379a0000000000000000000000000000000000000000000000000000000008152600401610688906111d4565b60405180910390fd5b61069b6001610a07565b8211156106dd576040517f08c379a00000000000000000000000000000000000000000000000000000000081526004016106d4906114be565b60405180910390fd5b8060026000848152602001908152602001600020600301819055505050565b610704610a15565b73ffffffffffffffffffffffffffffffffffffffff16610722610836565b73ffffffffffffffffffffffffffffffffffffffff1614610778576040517f08c379a000000000000000000000000000000000000000000000000000000000815260040161076f906111d4565b60405180910390fd5b600073ffffffffffffffffffffffffffffffffffffffff1660008054906101000a900473ffffffffffffffffffffffffffffffffffffffff1673ffffffffffffffffffffffffffffffffffffffff167f8be0079c531659141344cd1fd0a4f28419497f9722a3daafe3b4186f6b6457e060405160405180910390a360008060006101000a81548173ffffffffffffffffffffffffffffffffffffffff021916908373ffffffffffffffffffffffffffffffffffffffff160217905550565b60008060009054906101000a900473ffffffffffffffffffffffffffffffffffffffff16905090565b610867610a15565b73ffffffffffffffffffffffffffffffffffffffff16610885610836565b73ffffffffffffffffffffffffffffffffffffffff16146108db576040517f08c379a00000000000000000000000000000000000000000000000000000000081526004016108d2906111d4565b60405180910390fd5b600073ffffffffffffffffffffffffffffffffffffffff168173ffffffffffffffffffffffffffffffffffffffff160361094a576040517f08c379a000000000000000000000000000000000000000000000000000000000815260040161094190611550565b60405180910390fd5b8073ffffffffffffffffffffffffffffffffffffffff1660008054906101000a900473ffffffffffffffffffffffffffffffffffffffff1673ffffffffffffffffffffffffffffffffffffffff167f8be0079c531659141344cd1fd0a4f28419497f9722a3daafe3b4186f6b6457e060405160405180910390a3806000806101000a81548173ffffffffffffffffffffffffffffffffffffffff021916908373ffffffffffffffffffffffffffffffffffffffff16021790555050565b600081600001549050919050565b600033905090565b6001816000016000828254019250508190555050565b6040518060800160405280600081526020016060815260200160008152602001600081525090565b600081519050919050565b600082825260208201905092915050565b6000819050602082019050919050565b6000819050919050565b610a9a81610a87565b82525050565b600081519050919050565b600082825260208201905092915050565b60005b83811015610ada578082015181840152602081019050610abf565b60008484015250505050565b6000601f19601f8301169050919050565b6000610b0282610aa0565b610b0c8185610aab565b9350610b1c818560208601610abc565b610b2581610ae6565b840191505092915050565b6000608083016000830151610b486000860182610a91565b5060208301518482036020860152610b608282610af7565b9150506040830151610b756040860182610a91565b506060830151610b886060860182610a91565b508091505092915050565b6000610b9f8383610b30565b905092915050565b6000602082019050919050565b6000610bbf82610a5b565b610bc98185610a66565b935083602082028501610bdb85610a77565b8060005b85811015610c175784840389528151610bf88582610b93565b9450610c0383610ba7565b925060208a01995050600181019050610bdf565b50829750879550505050505092915050565b60006020820190508181036000830152610c438184610bb4565b905092915050565b6000604051905090565b600080fd5b600080fd5b600080fd5b600080fd5b7f4e487b7100000000000000000000000000000000000000000000000000000000600052604160045260246000fd5b610ca182610ae6565b810181811067ffffffffffffffff82111715610cc057610cbf610c69565b5b80604052505050565b6000610cd3610c4b565b9050610cdf8282610c98565b919050565b600067ffffffffffffffff821115610cff57610cfe610c69565b5b610d0882610ae6565b9050602081019050919050565b82818337600083830152505050565b6000610d37610d3284610ce4565b610cc9565b905082815260208101848484011115610d5357610d52610c64565b5b610d5e848285610d15565b509392505050565b600082601f830112610d7b57610d7a610c5f565b5b8135610d8b848260208601610d24565b91505092915050565b610d9d81610a87565b8114610da857600080fd5b50565b600081359050610dba81610d94565b92915050565b600080600060608486031215610dd957610dd8610c55565b5b600084013567ffffffffffffffff811115610df757610df6610c5a565b5b610e0386828701610d66565b9350506020610e1486828701610dab565b9250506040610e2586828701610dab565b9150509250925092565b610e3881610a87565b82525050565b6000602082019050610e536000830184610e2f565b92915050565b600060208284031215610e6f57610e6e610c55565b5b6000610e7d84828501610dab565b91505092915050565b6000608083016000830151610e9e6000860182610a91565b5060208301518482036020860152610eb68282610af7565b9150506040830151610ecb6040860182610a91565b506060830151610ede6060860182610a91565b508091505092915050565b60006020820190508181036000830152610f038184610e86565b905092915050565b600082825260208201905092915050565b6000610f2782610aa0565b610f318185610f0b565b9350610f41818560208601610abc565b610f4a81610ae6565b840191505092915050565b6000608082019050610f6a6000830187610e2f565b8181036020830152610f7c8186610f1c565b9050610f8b6040830185610e2f565b610f986060830184610e2f565b95945050505050565b60008060408385031215610fb857610fb7610c55565b5b6000610fc685828601610dab565b9250506020610fd785828601610dab565b9150509250929050565b600073ffffffffffffffffffffffffffffffffffffffff82169050919050565b600061100c82610fe1565b9050919050565b61101c81611001565b82525050565b60006020820190506110376000830184611013565b92915050565b61104681611001565b811461105157600080fd5b50565b6000813590506110638161103d565b92915050565b60006020828403121561107f5761107e610c55565b5b600061108d84828501611054565b91505092915050565b7f4e487b7100000000000000000000000000000000000000000000000000000000600052601160045260246000fd5b60006110d082610a87565b91506110db83610a87565b92508282019050808211156110f3576110f2611096565b5b92915050565b7f4e487b7100000000000000000000000000000000000000000000000000000000600052602260045260246000fd5b6000600282049050600182168061114057607f821691505b602082108103611153576111526110f9565b5b50919050565b7f4e487b7100000000000000000000000000000000000000000000000000000000600052603260045260246000fd5b7f4f776e61626c653a2063616c6c6572206973206e6f7420746865206f776e6572600082015250565b60006111be602083610f0b565b91506111c982611188565b602082019050919050565b600060208201905081810360008301526111ed816111b1565b9050919050565b60008190508160005260206000209050919050565b60006020601f8301049050919050565b600082821b905092915050565b6000600883026112567fffffffffffffffffffffffffffffffffffffffffffffffffffffffffffffffff82611219565b6112608683611219565b95508019841693508086168417925050509392505050565b6000819050919050565b600061129d61129861129384610a87565b611278565b610a87565b9050919050565b6000819050919050565b6112b783611282565b6112cb6112c3826112a4565b848454611226565b825550505050565b600090565b6112e06112d3565b6112eb8184846112ae565b505050565b5b8181101561130f576113046000826112d8565b6001810190506112f1565b5050565b601f82111561135457611325816111f4565b61132e84611209565b8101602085101561133d578190505b61135161134985611209565b8301826112f0565b50505b505050565b600082821c905092915050565b600061137760001984600802611359565b1980831691505092915050565b60006113908383611366565b9150826002028217905092915050565b6113a982610aa0565b67ffffffffffffffff8111156113c2576113c1610c69565b5b6113cc8254611128565b6113d7828285611313565b600060209050601f83116001811461140a57600084156113f8578287015190505b6114028582611384565b86555061146a565b601f198416611418866111f4565b60005b828110156114405784890151825560018201915060208501945060208101905061141b565b8683101561145d5784890151611459601f891682611366565b8355505b6001600288020188555050505b505050505050565b7f4a756761646f72206e6f20657869737465000000000000000000000000000000600082015250565b60006114a8601183610f0b565b91506114b382611472565b602082019050919050565b600060208201905081810360008301526114d78161149b565b9050919050565b7f4f776e61626c653a206e6577206f776e657220697320746865207a65726f206160008201527f6464726573730000000000000000000000000000000000000000000000000000602082015250565b600061153a602683610f0b565b9150611545826114de565b604082019050919050565b600060208201905081810360008301526115698161152d565b905091905056fea2646970667358221220fa8811ba148b6c22ace4008c3d329766e861337086c2ed83af98f2010786ab3864736f6c63430008180033","opcodes":"PUSH1 0x80 PUSH1 0x40 MSTORE CALLVALUE DUP1 ISZERO PUSH2 0x10 JUMPI PUSH1 0x0 DUP1 REVERT JUMPDEST POP PUSH1 0x0 PUSH2 0x21 PUSH2 0xC4 PUSH1 0x20 SHL PUSH1 0x20 SHR JUMP JUMPDEST SWAP1 POP DUP1 PUSH1 0x0 DUP1 PUSH2 0x100 EXP DUP2 SLOAD DUP2 PUSH20 0xFFFFFFFFFFFFFFFFFFFFFFFFFFFFFFFFFFFFFFFF MUL NOT AND SWAP1 DUP4 PUSH20 0xFFFFFFFFFFFFFFFFFFFFFFFFFFFFFFFFFFFFFFFF AND MUL OR SWAP1 SSTORE POP DUP1 PUSH20 0xFFFFFFFFFFFFFFFFFFFFFFFFFFFFFFFFFFFFFFFF AND PUSH1 0x0 PUSH20 0xFFFFFFFFFFFFFFFFFFFFFFFFFFFFFFFFFFFFFFFF AND PUSH32 0x8BE0079C531659141344CD1FD0A4F28419497F9722A3DAAFE3B4186F6B6457E0 PUSH1 0x40 MLOAD PUSH1 0x40 MLOAD DUP1 SWAP2 SUB SWAP1 LOG3 POP PUSH2 0xCC JUMP JUMPDEST PUSH1 0x0 CALLER SWAP1 POP SWAP1 JUMP JUMPDEST PUSH2 0x15A6 DUP1 PUSH2 0xDB PUSH1 0x0 CODECOPY PUSH1 0x0 RETURN INVALID PUSH1 0x80 PUSH1 0x40 MSTORE CALLVALUE DUP1 ISZERO PUSH2 0x10 JUMPI PUSH1 0x0 DUP1 REVERT JUMPDEST POP PUSH1 0x4 CALLDATASIZE LT PUSH2 0x88 JUMPI PUSH1 0x0 CALLDATALOAD PUSH1 0xE0 SHR DUP1 PUSH4 0x61CA0B35 GT PUSH2 0x5B JUMPI DUP1 PUSH4 0x61CA0B35 EQ PUSH2 0x13E JUMPI DUP1 PUSH4 0x715018A6 EQ PUSH2 0x15A JUMPI DUP1 PUSH4 0x8DA5CB5B EQ PUSH2 0x164 JUMPI DUP1 PUSH4 0xF2FDE38B EQ PUSH2 0x182 JUMPI PUSH2 0x88 JUMP JUMPDEST DUP1 PUSH4 0x12CD028D EQ PUSH2 0x8D JUMPI DUP1 PUSH4 0x3C7F7509 EQ PUSH2 0xAB JUMPI DUP1 PUSH4 0x49480743 EQ PUSH2 0xDB JUMPI DUP1 PUSH4 0x4AEAD46C EQ PUSH2 0x10B JUMPI JUMPDEST PUSH1 0x0 DUP1 REVERT JUMPDEST PUSH2 0x95 PUSH2 0x19E JUMP JUMPDEST PUSH1 0x40 MLOAD PUSH2 0xA2 SWAP2 SWAP1 PUSH2 0xC29 JUMP JUMPDEST PUSH1 0x40 MLOAD DUP1 SWAP2 SUB SWAP1 RETURN JUMPDEST PUSH2 0xC5 PUSH1 0x4 DUP1 CALLDATASIZE SUB DUP2 ADD SWAP1 PUSH2 0xC0 SWAP2 SWAP1 PUSH2 0xDC0 JUMP JUMPDEST PUSH2 0x322 JUMP JUMPDEST PUSH1 0x40 MLOAD PUSH2 0xD2 SWAP2 SWAP1 PUSH2 0xE3E JUMP JUMPDEST PUSH1 0x40 MLOAD DUP1 SWAP2 SUB SWAP1 RETURN JUMPDEST PUSH2 0xF5 PUSH1 0x4 DUP1 CALLDATASIZE SUB DUP2 ADD SWAP1 PUSH2 0xF0 SWAP2 SWAP1 PUSH2 0xE59 JUMP JUMPDEST PUSH2 0x434 JUMP JUMPDEST PUSH1 0x40 MLOAD PUSH2 0x102 SWAP2 SWAP1 PUSH2 0xEE9 JUMP JUMPDEST PUSH1 0x40 MLOAD DUP1 SWAP2 SUB SWAP1 RETURN JUMPDEST PUSH2 0x125 PUSH1 0x4 DUP1 CALLDATASIZE SUB DUP2 ADD SWAP1 PUSH2 0x120 SWAP2 SWAP1 PUSH2 0xE59 JUMP JUMPDEST PUSH2 0x55D JUMP JUMPDEST PUSH1 0x40 MLOAD PUSH2 0x135 SWAP5 SWAP4 SWAP3 SWAP2 SWAP1 PUSH2 0xF55 JUMP JUMPDEST PUSH1 0x40 MLOAD DUP1 SWAP2 SUB SWAP1 RETURN JUMPDEST PUSH2 0x158 PUSH1 0x4 DUP1 CALLDATASIZE SUB DUP2 ADD SWAP1 PUSH2 0x153 SWAP2 SWAP1 PUSH2 0xFA1 JUMP JUMPDEST PUSH2 0x615 JUMP JUMPDEST STOP JUMPDEST PUSH2 0x162 PUSH2 0x6FC JUMP JUMPDEST STOP JUMPDEST PUSH2 0x16C PUSH2 0x836 JUMP JUMPDEST PUSH1 0x40 MLOAD PUSH2 0x179 SWAP2 SWAP1 PUSH2 0x1022 JUMP JUMPDEST PUSH1 0x40 MLOAD DUP1 SWAP2 SUB SWAP1 RETURN JUMPDEST PUSH2 0x19C PUSH1 0x4 DUP1 CALLDATASIZE SUB DUP2 ADD SWAP1 PUSH2 0x197 SWAP2 SWAP1 PUSH2 0x1069 JUMP JUMPDEST PUSH2 0x85F JUMP JUMPDEST STOP JUMPDEST PUSH1 0x60 PUSH1 0x0 PUSH2 0x1AC PUSH1 0x1 PUSH2 0xA07 JUMP JUMPDEST PUSH8 0xFFFFFFFFFFFFFFFF DUP2 GT ISZERO PUSH2 0x1C5 JUMPI PUSH2 0x1C4 PUSH2 0xC69 JUMP JUMPDEST JUMPDEST PUSH1 0x40 MLOAD SWAP1 DUP1 DUP3 MSTORE DUP1 PUSH1 0x20 MUL PUSH1 0x20 ADD DUP3 ADD PUSH1 0x40 MSTORE DUP1 ISZERO PUSH2 0x1FE JUMPI DUP2 PUSH1 0x20 ADD JUMPDEST PUSH2 0x1EB PUSH2 0xA33 JUMP JUMPDEST DUP2 MSTORE PUSH1 0x20 ADD SWAP1 PUSH1 0x1 SWAP1 SUB SWAP1 DUP2 PUSH2 0x1E3 JUMPI SWAP1 POP JUMPDEST POP SWAP1 POP PUSH1 0x0 JUMPDEST PUSH2 0x20E PUSH1 0x1 PUSH2 0xA07 JUMP JUMPDEST DUP2 LT ISZERO PUSH2 0x31A JUMPI PUSH1 0x2 PUSH1 0x0 PUSH1 0x1 DUP4 PUSH2 0x226 SWAP2 SWAP1 PUSH2 0x10C5 JUMP JUMPDEST DUP2 MSTORE PUSH1 0x20 ADD SWAP1 DUP2 MSTORE PUSH1 0x20 ADD PUSH1 0x0 KECCAK256 PUSH1 0x40 MLOAD DUP1 PUSH1 0x80 ADD PUSH1 0x40 MSTORE SWAP1 DUP2 PUSH1 0x0 DUP3 ADD SLOAD DUP2 MSTORE PUSH1 0x20 ADD PUSH1 0x1 DUP3 ADD DUP1 SLOAD PUSH2 0x259 SWAP1 PUSH2 0x1128 JUMP JUMPDEST DUP1 PUSH1 0x1F ADD PUSH1 0x20 DUP1 SWAP2 DIV MUL PUSH1 0x20 ADD PUSH1 0x40 MLOAD SWAP1 DUP2 ADD PUSH1 0x40 MSTORE DUP1 SWAP3 SWAP2 SWAP1 DUP2 DUP2 MSTORE PUSH1 0x20 ADD DUP3 DUP1 SLOAD PUSH2 0x285 SWAP1 PUSH2 0x1128 JUMP JUMPDEST DUP1 ISZERO PUSH2 0x2D2 JUMPI DUP1 PUSH1 0x1F LT PUSH2 0x2A7 JUMPI PUSH2 0x100 DUP1 DUP4 SLOAD DIV MUL DUP4 MSTORE SWAP2 PUSH1 0x20 ADD SWAP2 PUSH2 0x2D2 JUMP JUMPDEST DUP3 ADD SWAP2 SWAP1 PUSH1 0x0 MSTORE PUSH1 0x20 PUSH1 0x0 KECCAK256 SWAP1 JUMPDEST DUP2 SLOAD DUP2 MSTORE SWAP1 PUSH1 0x1 ADD SWAP1 PUSH1 0x20 ADD DUP1 DUP4 GT PUSH2 0x2B5 JUMPI DUP3 SWAP1 SUB PUSH1 0x1F AND DUP3 ADD SWAP2 JUMPDEST POP POP POP POP POP DUP2 MSTORE PUSH1 0x20 ADD PUSH1 0x2 DUP3 ADD SLOAD DUP2 MSTORE PUSH1 0x20 ADD PUSH1 0x3 DUP3 ADD SLOAD DUP2 MSTORE POP POP DUP3 DUP3 DUP2 MLOAD DUP2 LT PUSH2 0x302 JUMPI PUSH2 0x301 PUSH2 0x1159 JUMP JUMPDEST JUMPDEST PUSH1 0x20 MUL PUSH1 0x20 ADD ADD DUP2 SWAP1 MSTORE POP DUP1 DUP1 PUSH1 0x1 ADD SWAP2 POP POP PUSH2 0x204 JUMP JUMPDEST POP DUP1 SWAP2 POP POP SWAP1 JUMP JUMPDEST PUSH1 0x0 PUSH2 0x32C PUSH2 0xA15 JUMP JUMPDEST PUSH20 0xFFFFFFFFFFFFFFFFFFFFFFFFFFFFFFFFFFFFFFFF AND PUSH2 0x34A PUSH2 0x836 JUMP JUMPDEST PUSH20 0xFFFFFFFFFFFFFFFFFFFFFFFFFFFFFFFFFFFFFFFF AND EQ PUSH2 0x3A0 JUMPI PUSH1 0x40 MLOAD PUSH32 0x8C379A000000000000000000000000000000000000000000000000000000000 DUP2 MSTORE PUSH1 0x4 ADD PUSH2 0x397 SWAP1 PUSH2 0x11D4 JUMP JUMPDEST PUSH1 0x40 MLOAD DUP1 SWAP2 SUB SWAP1 REVERT JUMPDEST PUSH2 0x3AA PUSH1 0x1 PUSH2 0xA1D JUMP JUMPDEST PUSH1 0x0 PUSH2 0x3B6 PUSH1 0x1 PUSH2 0xA07 JUMP JUMPDEST SWAP1 POP PUSH1 0x0 PUSH1 0x40 MLOAD DUP1 PUSH1 0x80 ADD PUSH1 0x40 MSTORE DUP1 DUP4 DUP2 MSTORE PUSH1 0x20 ADD DUP8 DUP2 MSTORE PUSH1 0x20 ADD DUP7 DUP2 MSTORE PUSH1 0x20 ADD DUP6 DUP2 MSTORE POP SWAP1 POP DUP1 PUSH1 0x2 PUSH1 0x0 DUP5 DUP2 MSTORE PUSH1 0x20 ADD SWAP1 DUP2 MSTORE PUSH1 0x20 ADD PUSH1 0x0 KECCAK256 PUSH1 0x0 DUP3 ADD MLOAD DUP2 PUSH1 0x0 ADD SSTORE PUSH1 0x20 DUP3 ADD MLOAD DUP2 PUSH1 0x1 ADD SWAP1 DUP2 PUSH2 0x410 SWAP2 SWAP1 PUSH2 0x13A0 JUMP JUMPDEST POP PUSH1 0x40 DUP3 ADD MLOAD DUP2 PUSH1 0x2 ADD SSTORE PUSH1 0x60 DUP3 ADD MLOAD DUP2 PUSH1 0x3 ADD SSTORE SWAP1 POP POP DUP2 SWAP3 POP POP POP SWAP4 SWAP3 POP POP POP JUMP JUMPDEST PUSH2 0x43C PUSH2 0xA33 JUMP JUMPDEST PUSH2 0x446 PUSH1 0x1 PUSH2 0xA07 JUMP JUMPDEST DUP3 GT ISZERO PUSH2 0x488 JUMPI PUSH1 0x40 MLOAD PUSH32 0x8C379A000000000000000000000000000000000000000000000000000000000 DUP2 MSTORE PUSH1 0x4 ADD PUSH2 0x47F SWAP1 PUSH2 0x14BE JUMP JUMPDEST PUSH1 0x40 MLOAD DUP1 SWAP2 SUB SWAP1 REVERT JUMPDEST PUSH1 0x2 PUSH1 0x0 DUP4 DUP2 MSTORE PUSH1 0x20 ADD SWAP1 DUP2 MSTORE PUSH1 0x20 ADD PUSH1 0x0 KECCAK256 PUSH1 0x40 MLOAD DUP1 PUSH1 0x80 ADD PUSH1 0x40 MSTORE SWAP1 DUP2 PUSH1 0x0 DUP3 ADD SLOAD DUP2 MSTORE PUSH1 0x20 ADD PUSH1 0x1 DUP3 ADD DUP1 SLOAD PUSH2 0x4C0 SWAP1 PUSH2 0x1128 JUMP JUMPDEST DUP1 PUSH1 0x1F ADD PUSH1 0x20 DUP1 SWAP2 DIV MUL PUSH1 0x20 ADD PUSH1 0x40 MLOAD SWAP1 DUP2 ADD PUSH1 0x40 MSTORE DUP1 SWAP3 SWAP2 SWAP1 DUP2 DUP2 MSTORE PUSH1 0x20 ADD DUP3 DUP1 SLOAD PUSH2 0x4EC SWAP1 PUSH2 0x1128 JUMP JUMPDEST DUP1 ISZERO PUSH2 0x539 JUMPI DUP1 PUSH1 0x1F LT PUSH2 0x50E JUMPI PUSH2 0x100 DUP1 DUP4 SLOAD DIV MUL DUP4 MSTORE SWAP2 PUSH1 0x20 ADD SWAP2 PUSH2 0x539 JUMP JUMPDEST DUP3 ADD SWAP2 SWAP1 PUSH1 0x0 MSTORE PUSH1 0x20 PUSH1 0x0 KECCAK256 SWAP1 JUMPDEST DUP2 SLOAD DUP2 MSTORE SWAP1 PUSH1 0x1 ADD SWAP1 PUSH1 0x20 ADD DUP1 DUP4 GT PUSH2 0x51C JUMPI DUP3 SWAP1 SUB PUSH1 0x1F AND DUP3 ADD SWAP2 JUMPDEST POP POP POP POP POP DUP2 MSTORE PUSH1 0x20 ADD PUSH1 0x2 DUP3 ADD SLOAD DUP2 MSTORE PUSH1 0x20 ADD PUSH1 0x3 DUP3 ADD SLOAD DUP2 MSTORE POP POP SWAP1 POP SWAP2 SWAP1 POP JUMP JUMPDEST PUSH1 0x2 PUSH1 0x20 MSTORE DUP1 PUSH1 0x0 MSTORE PUSH1 0x40 PUSH1 0x0 KECCAK256 PUSH1 0x0 SWAP2 POP SWAP1 POP DUP1 PUSH1 0x0 ADD SLOAD SWAP1 DUP1 PUSH1 0x1 ADD DUP1 SLOAD PUSH2 0x586 SWAP1 PUSH2 0x1128 JUMP JUMPDEST DUP1 PUSH1 0x1F ADD PUSH1 0x20 DUP1 SWAP2 DIV MUL PUSH1 0x20 ADD PUSH1 0x40 MLOAD SWAP1 DUP2 ADD PUSH1 0x40 MSTORE DUP1 SWAP3 SWAP2 SWAP1 DUP2 DUP2 MSTORE PUSH1 0x20 ADD DUP3 DUP1 SLOAD PUSH2 0x5B2 SWAP1 PUSH2 0x1128 JUMP JUMPDEST DUP1 ISZERO PUSH2 0x5FF JUMPI DUP1 PUSH1 0x1F LT PUSH2 0x5D4 JUMPI PUSH2 0x100 DUP1 DUP4 SLOAD DIV MUL DUP4 MSTORE SWAP2 PUSH1 0x20 ADD SWAP2 PUSH2 0x5FF JUMP JUMPDEST DUP3 ADD SWAP2 SWAP1 PUSH1 0x0 MSTORE PUSH1 0x20 PUSH1 0x0 KECCAK256 SWAP1 JUMPDEST DUP2 SLOAD DUP2 MSTORE SWAP1 PUSH1 0x1 ADD SWAP1 PUSH1 0x20 ADD DUP1 DUP4 GT PUSH2 0x5E2 JUMPI DUP3 SWAP1 SUB PUSH1 0x1F AND DUP3 ADD SWAP2 JUMPDEST POP POP POP POP POP SWAP1 DUP1 PUSH1 0x2 ADD SLOAD SWAP1 DUP1 PUSH1 0x3 ADD SLOAD SWAP1 POP DUP5 JUMP JUMPDEST PUSH2 0x61D PUSH2 0xA15 JUMP JUMPDEST PUSH20 0xFFFFFFFFFFFFFFFFFFFFFFFFFFFFFFFFFFFFFFFF AND PUSH2 0x63B PUSH2 0x836 JUMP JUMPDEST PUSH20 0xFFFFFFFFFFFFFFFFFFFFFFFFFFFFFFFFFFFFFFFF AND EQ PUSH2 0x691 JUMPI PUSH1 0x40 MLOAD PUSH32 0x8C379A000000000000000000000000000000000000000000000000000000000 DUP2 MSTORE PUSH1 0x4 ADD PUSH2 0x688 SWAP1 PUSH2 0x11D4 JUMP JUMPDEST PUSH1 0x40 MLOAD DUP1 SWAP2 SUB SWAP1 REVERT JUMPDEST PUSH2 0x69B PUSH1 0x1 PUSH2 0xA07 JUMP JUMPDEST DUP3 GT ISZERO PUSH2 0x6DD JUMPI PUSH1 0x40 MLOAD PUSH32 0x8C379A000000000000000000000000000000000000000000000000000000000 DUP2 MSTORE PUSH1 0x4 ADD PUSH2 0x6D4 SWAP1 PUSH2 0x14BE JUMP JUMPDEST PUSH1 0x40 MLOAD DUP1 SWAP2 SUB SWAP1 REVERT JUMPDEST DUP1 PUSH1 0x2 PUSH1 0x0 DUP5 DUP2 MSTORE PUSH1 0x20 ADD SWAP1 DUP2 MSTORE PUSH1 0x20 ADD PUSH1 0x0 KECCAK256 PUSH1 0x3 ADD DUP2 SWAP1 SSTORE POP POP POP JUMP JUMPDEST PUSH2 0x704 PUSH2 0xA15 JUMP JUMPDEST PUSH20 0xFFFFFFFFFFFFFFFFFFFFFFFFFFFFFFFFFFFFFFFF AND PUSH2 0x722 PUSH2 0x836 JUMP JUMPDEST PUSH20 0xFFFFFFFFFFFFFFFFFFFFFFFFFFFFFFFFFFFFFFFF AND EQ PUSH2 0x778 JUMPI PUSH1 0x40 MLOAD PUSH32 0x8C379A000000000000000000000000000000000000000000000000000000000 DUP2 MSTORE PUSH1 0x4 ADD PUSH2 0x76F SWAP1 PUSH2 0x11D4 JUMP JUMPDEST PUSH1 0x40 MLOAD DUP1 SWAP2 SUB SWAP1 REVERT JUMPDEST PUSH1 0x0 PUSH20 0xFFFFFFFFFFFFFFFFFFFFFFFFFFFFFFFFFFFFFFFF AND PUSH1 0x0 DUP1 SLOAD SWAP1 PUSH2 0x100 EXP SWAP1 DIV PUSH20 0xFFFFFFFFFFFFFFFFFFFFFFFFFFFFFFFFFFFFFFFF AND PUSH20 0xFFFFFFFFFFFFFFFFFFFFFFFFFFFFFFFFFFFFFFFF AND PUSH32 0x8BE0079C531659141344CD1FD0A4F28419497F9722A3DAAFE3B4186F6B6457E0 PUSH1 0x40 MLOAD PUSH1 0x40 MLOAD DUP1 SWAP2 SUB SWAP1 LOG3 PUSH1 0x0 DUP1 PUSH1 0x0 PUSH2 0x100 EXP DUP2 SLOAD DUP2 PUSH20 0xFFFFFFFFFFFFFFFFFFFFFFFFFFFFFFFFFFFFFFFF MUL NOT AND SWAP1 DUP4 PUSH20 0xFFFFFFFFFFFFFFFFFFFFFFFFFFFFFFFFFFFFFFFF AND MUL OR SWAP1 SSTORE POP JUMP JUMPDEST PUSH1 0x0 DUP1 PUSH1 0x0 SWAP1 SLOAD SWAP1 PUSH2 0x100 EXP SWAP1 DIV PUSH20 0xFFFFFFFFFFFFFFFFFFFFFFFFFFFFFFFFFFFFFFFF AND SWAP1 POP SWAP1 JUMP JUMPDEST PUSH2 0x867 PUSH2 0xA15 JUMP JUMPDEST PUSH20 0xFFFFFFFFFFFFFFFFFFFFFFFFFFFFFFFFFFFFFFFF AND PUSH2 0x885 PUSH2 0x836 JUMP JUMPDEST PUSH20 0xFFFFFFFFFFFFFFFFFFFFFFFFFFFFFFFFFFFFFFFF AND EQ PUSH2 0x8DB JUMPI PUSH1 0x40 MLOAD PUSH32 0x8C379A000000000000000000000000000000000000000000000000000000000 DUP2 MSTORE PUSH1 0x4 ADD PUSH2 0x8D2 SWAP1 PUSH2 0x11D4 JUMP JUMPDEST PUSH1 0x40 MLOAD DUP1 SWAP2 SUB SWAP1 REVERT JUMPDEST PUSH1 0x0 PUSH20 0xFFFFFFFFFFFFFFFFFFFFFFFFFFFFFFFFFFFFFFFF AND DUP2 PUSH20 0xFFFFFFFFFFFFFFFFFFFFFFFFFFFFFFFFFFFFFFFF AND SUB PUSH2 0x94A JUMPI PUSH1 0x40 MLOAD PUSH32 0x8C379A000000000000000000000000000000000000000000000000000000000 DUP2 MSTORE PUSH1 0x4 ADD PUSH2 0x941 SWAP1 PUSH2 0x1550 JUMP JUMPDEST PUSH1 0x40 MLOAD DUP1 SWAP2 SUB SWAP1 REVERT JUMPDEST DUP1 PUSH20 0xFFFFFFFFFFFFFFFFFFFFFFFFFFFFFFFFFFFFFFFF AND PUSH1 0x0 DUP1 SLOAD SWAP1 PUSH2 0x100 EXP SWAP1 DIV PUSH20 0xFFFFFFFFFFFFFFFFFFFFFFFFFFFFFFFFFFFFFFFF AND PUSH20 0xFFFFFFFFFFFFFFFFFFFFFFFFFFFFFFFFFFFFFFFF AND PUSH32 0x8BE0079C531659141344CD1FD0A4F28419497F9722A3DAAFE3B4186F6B6457E0 PUSH1 0x40 MLOAD PUSH1 0x40 MLOAD DUP1 SWAP2 SUB SWAP1 LOG3 DUP1 PUSH1 0x0 DUP1 PUSH2 0x100 EXP DUP2 SLOAD DUP2 PUSH20 0xFFFFFFFFFFFFFFFFFFFFFFFFFFFFFFFFFFFFFFFF MUL NOT AND SWAP1 DUP4 PUSH20 0xFFFFFFFFFFFFFFFFFFFFFFFFFFFFFFFFFFFFFFFF AND MUL OR SWAP1 SSTORE POP POP JUMP JUMPDEST PUSH1 0x0 DUP2 PUSH1 0x0 ADD SLOAD SWAP1 POP SWAP2 SWAP1 POP JUMP JUMPDEST PUSH1 0x0 CALLER SWAP1 POP SWAP1 JUMP JUMPDEST PUSH1 0x1 DUP2 PUSH1 0x0 ADD PUSH1 0x0 DUP3 DUP3 SLOAD ADD SWAP3 POP POP DUP2 SWAP1 SSTORE POP POP JUMP JUMPDEST PUSH1 0x40 MLOAD DUP1 PUSH1 0x80 ADD PUSH1 0x40 MSTORE DUP1 PUSH1 0x0 DUP2 MSTORE PUSH1 0x20 ADD PUSH1 0x60 DUP2 MSTORE PUSH1 0x20 ADD PUSH1 0x0 DUP2 MSTORE PUSH1 0x20 ADD PUSH1 0x0 DUP2 MSTORE POP SWAP1 JUMP JUMPDEST PUSH1 0x0 DUP2 MLOAD SWAP1 POP SWAP2 SWAP1 POP JUMP JUMPDEST PUSH1 0x0 DUP3 DUP3 MSTORE PUSH1 0x20 DUP3 ADD SWAP1 POP SWAP3 SWAP2 POP POP JUMP JUMPDEST PUSH1 0x0 DUP2 SWAP1 POP PUSH1 0x20 DUP3 ADD SWAP1 POP SWAP2 SWAP1 POP JUMP JUMPDEST PUSH1 0x0 DUP2 SWAP1 POP SWAP2 SWAP1 POP JUMP JUMPDEST PUSH2 0xA9A DUP2 PUSH2 0xA87 JUMP JUMPDEST DUP3 MSTORE POP POP JUMP JUMPDEST PUSH1 0x0 DUP2 MLOAD SWAP1 POP SWAP2 SWAP1 POP JUMP JUMPDEST PUSH1 0x0 DUP3 DUP3 MSTORE PUSH1 0x20 DUP3 ADD SWAP1 POP SWAP3 SWAP2 POP POP JUMP JUMPDEST PUSH1 0x0 JUMPDEST DUP4 DUP2 LT ISZERO PUSH2 0xADA JUMPI DUP1 DUP3 ADD MLOAD DUP2 DUP5 ADD MSTORE PUSH1 0x20 DUP2 ADD SWAP1 POP PUSH2 0xABF JUMP JUMPDEST PUSH1 0x0 DUP5 DUP5 ADD MSTORE POP POP POP POP JUMP JUMPDEST PUSH1 0x0 PUSH1 0x1F NOT PUSH1 0x1F DUP4 ADD AND SWAP1 POP SWAP2 SWAP1 POP JUMP JUMPDEST PUSH1 0x0 PUSH2 0xB02 DUP3 PUSH2 0xAA0 JUMP JUMPDEST PUSH2 0xB0C DUP2 DUP6 PUSH2 0xAAB JUMP JUMPDEST SWAP4 POP PUSH2 0xB1C DUP2 DUP6 PUSH1 0x20 DUP7 ADD PUSH2 0xABC JUMP JUMPDEST PUSH2 0xB25 DUP2 PUSH2 0xAE6 JUMP JUMPDEST DUP5 ADD SWAP2 POP POP SWAP3 SWAP2 POP POP JUMP JUMPDEST PUSH1 0x0 PUSH1 0x80 DUP4 ADD PUSH1 0x0 DUP4 ADD MLOAD PUSH2 0xB48 PUSH1 0x0 DUP7 ADD DUP3 PUSH2 0xA91 JUMP JUMPDEST POP PUSH1 0x20 DUP4 ADD MLOAD DUP5 DUP3 SUB PUSH1 0x20 DUP7 ADD MSTORE PUSH2 0xB60 DUP3 DUP3 PUSH2 0xAF7 JUMP JUMPDEST SWAP2 POP POP PUSH1 0x40 DUP4 ADD MLOAD PUSH2 0xB75 PUSH1 0x40 DUP7 ADD DUP3 PUSH2 0xA91 JUMP JUMPDEST POP PUSH1 0x60 DUP4 ADD MLOAD PUSH2 0xB88 PUSH1 0x60 DUP7 ADD DUP3 PUSH2 0xA91 JUMP JUMPDEST POP DUP1 SWAP2 POP POP SWAP3 SWAP2 POP POP JUMP JUMPDEST PUSH1 0x0 PUSH2 0xB9F DUP4 DUP4 PUSH2 0xB30 JUMP JUMPDEST SWAP1 POP SWAP3 SWAP2 POP POP JUMP JUMPDEST PUSH1 0x0 PUSH1 0x20 DUP3 ADD SWAP1 POP SWAP2 SWAP1 POP JUMP JUMPDEST PUSH1 0x0 PUSH2 0xBBF DUP3 PUSH2 0xA5B JUMP JUMPDEST PUSH2 0xBC9 DUP2 DUP6 PUSH2 0xA66 JUMP JUMPDEST SWAP4 POP DUP4 PUSH1 0x20 DUP3 MUL DUP6 ADD PUSH2 0xBDB DUP6 PUSH2 0xA77 JUMP JUMPDEST DUP1 PUSH1 0x0 JUMPDEST DUP6 DUP2 LT ISZERO PUSH2 0xC17 JUMPI DUP5 DUP5 SUB DUP10 MSTORE DUP2 MLOAD PUSH2 0xBF8 DUP6 DUP3 PUSH2 0xB93 JUMP JUMPDEST SWAP5 POP PUSH2 0xC03 DUP4 PUSH2 0xBA7 JUMP JUMPDEST SWAP3 POP PUSH1 0x20 DUP11 ADD SWAP10 POP POP PUSH1 0x1 DUP2 ADD SWAP1 POP PUSH2 0xBDF JUMP JUMPDEST POP DUP3 SWAP8 POP DUP8 SWAP6 POP POP POP POP POP POP SWAP3 SWAP2 POP POP JUMP JUMPDEST PUSH1 0x0 PUSH1 0x20 DUP3 ADD SWAP1 POP DUP2 DUP2 SUB PUSH1 0x0 DUP4 ADD MSTORE PUSH2 0xC43 DUP2 DUP5 PUSH2 0xBB4 JUMP JUMPDEST SWAP1 POP SWAP3 SWAP2 POP POP JUMP JUMPDEST PUSH1 0x0 PUSH1 0x40 MLOAD SWAP1 POP SWAP1 JUMP JUMPDEST PUSH1 0x0 DUP1 REVERT JUMPDEST PUSH1 0x0 DUP1 REVERT JUMPDEST PUSH1 0x0 DUP1 REVERT JUMPDEST PUSH1 0x0 DUP1 REVERT JUMPDEST PUSH32 0x4E487B7100000000000000000000000000000000000000000000000000000000 PUSH1 0x0 MSTORE PUSH1 0x41 PUSH1 0x4 MSTORE PUSH1 0x24 PUSH1 0x0 REVERT JUMPDEST PUSH2 0xCA1 DUP3 PUSH2 0xAE6 JUMP JUMPDEST DUP2 ADD DUP2 DUP2 LT PUSH8 0xFFFFFFFFFFFFFFFF DUP3 GT OR ISZERO PUSH2 0xCC0 JUMPI PUSH2 0xCBF PUSH2 0xC69 JUMP JUMPDEST JUMPDEST DUP1 PUSH1 0x40 MSTORE POP POP POP JUMP JUMPDEST PUSH1 0x0 PUSH2 0xCD3 PUSH2 0xC4B JUMP JUMPDEST SWAP1 POP PUSH2 0xCDF DUP3 DUP3 PUSH2 0xC98 JUMP JUMPDEST SWAP2 SWAP1 POP JUMP JUMPDEST PUSH1 0x0 PUSH8 0xFFFFFFFFFFFFFFFF DUP3 GT ISZERO PUSH2 0xCFF JUMPI PUSH2 0xCFE PUSH2 0xC69 JUMP JUMPDEST JUMPDEST PUSH2 0xD08 DUP3 PUSH2 0xAE6 JUMP JUMPDEST SWAP1 POP PUSH1 0x20 DUP2 ADD SWAP1 POP SWAP2 SWAP1 POP JUMP JUMPDEST DUP3 DUP2 DUP4 CALLDATACOPY PUSH1 0x0 DUP4 DUP4 ADD MSTORE POP POP POP JUMP JUMPDEST PUSH1 0x0 PUSH2 0xD37 PUSH2 0xD32 DUP5 PUSH2 0xCE4 JUMP JUMPDEST PUSH2 0xCC9 JUMP JUMPDEST SWAP1 POP DUP3 DUP2 MSTORE PUSH1 0x20 DUP2 ADD DUP5 DUP5 DUP5 ADD GT ISZERO PUSH2 0xD53 JUMPI PUSH2 0xD52 PUSH2 0xC64 JUMP JUMPDEST JUMPDEST PUSH2 0xD5E DUP5 DUP3 DUP6 PUSH2 0xD15 JUMP JUMPDEST POP SWAP4 SWAP3 POP POP POP JUMP JUMPDEST PUSH1 0x0 DUP3 PUSH1 0x1F DUP4 ADD SLT PUSH2 0xD7B JUMPI PUSH2 0xD7A PUSH2 0xC5F JUMP JUMPDEST JUMPDEST DUP2 CALLDATALOAD PUSH2 0xD8B DUP5 DUP3 PUSH1 0x20 DUP7 ADD PUSH2 0xD24 JUMP JUMPDEST SWAP2 POP POP SWAP3 SWAP2 POP POP JUMP JUMPDEST PUSH2 0xD9D DUP2 PUSH2 0xA87 JUMP JUMPDEST DUP2 EQ PUSH2 0xDA8 JUMPI PUSH1 0x0 DUP1 REVERT JUMPDEST POP JUMP JUMPDEST PUSH1 0x0 DUP2 CALLDATALOAD SWAP1 POP PUSH2 0xDBA DUP2 PUSH2 0xD94 JUMP JUMPDEST SWAP3 SWAP2 POP POP JUMP JUMPDEST PUSH1 0x0 DUP1 PUSH1 0x0 PUSH1 0x60 DUP5 DUP7 SUB SLT ISZERO PUSH2 0xDD9 JUMPI PUSH2 0xDD8 PUSH2 0xC55 JUMP JUMPDEST JUMPDEST PUSH1 0x0 DUP5 ADD CALLDATALOAD PUSH8 0xFFFFFFFFFFFFFFFF DUP2 GT ISZERO PUSH2 0xDF7 JUMPI PUSH2 0xDF6 PUSH2 0xC5A JUMP JUMPDEST JUMPDEST PUSH2 0xE03 DUP7 DUP3 DUP8 ADD PUSH2 0xD66 JUMP JUMPDEST SWAP4 POP POP PUSH1 0x20 PUSH2 0xE14 DUP7 DUP3 DUP8 ADD PUSH2 0xDAB JUMP JUMPDEST SWAP3 POP POP PUSH1 0x40 PUSH2 0xE25 DUP7 DUP3 DUP8 ADD PUSH2 0xDAB JUMP JUMPDEST SWAP2 POP POP SWAP3 POP SWAP3 POP SWAP3 JUMP JUMPDEST PUSH2 0xE38 DUP2 PUSH2 0xA87 JUMP JUMPDEST DUP3 MSTORE POP POP JUMP JUMPDEST PUSH1 0x0 PUSH1 0x20 DUP3 ADD SWAP1 POP PUSH2 0xE53 PUSH1 0x0 DUP4 ADD DUP5 PUSH2 0xE2F JUMP JUMPDEST SWAP3 SWAP2 POP POP JUMP JUMPDEST PUSH1 0x0 PUSH1 0x20 DUP3 DUP5 SUB SLT ISZERO PUSH2 0xE6F JUMPI PUSH2 0xE6E PUSH2 0xC55 JUMP JUMPDEST JUMPDEST PUSH1 0x0 PUSH2 0xE7D DUP5 DUP3 DUP6 ADD PUSH2 0xDAB JUMP JUMPDEST SWAP2 POP POP SWAP3 SWAP2 POP POP JUMP JUMPDEST PUSH1 0x0 PUSH1 0x80 DUP4 ADD PUSH1 0x0 DUP4 ADD MLOAD PUSH2 0xE9E PUSH1 0x0 DUP7 ADD DUP3 PUSH2 0xA91 JUMP JUMPDEST POP PUSH1 0x20 DUP4 ADD MLOAD DUP5 DUP3 SUB PUSH1 0x20 DUP7 ADD MSTORE PUSH2 0xEB6 DUP3 DUP3 PUSH2 0xAF7 JUMP JUMPDEST SWAP2 POP POP PUSH1 0x40 DUP4 ADD MLOAD PUSH2 0xECB PUSH1 0x40 DUP7 ADD DUP3 PUSH2 0xA91 JUMP JUMPDEST POP PUSH1 0x60 DUP4 ADD MLOAD PUSH2 0xEDE PUSH1 0x60 DUP7 ADD DUP3 PUSH2 0xA91 JUMP JUMPDEST POP DUP1 SWAP2 POP POP SWAP3 SWAP2 POP POP JUMP JUMPDEST PUSH1 0x0 PUSH1 0x20 DUP3 ADD SWAP1 POP DUP2 DUP2 SUB PUSH1 0x0 DUP4 ADD MSTORE PUSH2 0xF03 DUP2 DUP5 PUSH2 0xE86 JUMP JUMPDEST SWAP1 POP SWAP3 SWAP2 POP POP JUMP JUMPDEST PUSH1 0x0 DUP3 DUP3 MSTORE PUSH1 0x20 DUP3 ADD SWAP1 POP SWAP3 SWAP2 POP POP JUMP JUMPDEST PUSH1 0x0 PUSH2 0xF27 DUP3 PUSH2 0xAA0 JUMP JUMPDEST PUSH2 0xF31 DUP2 DUP6 PUSH2 0xF0B JUMP JUMPDEST SWAP4 POP PUSH2 0xF41 DUP2 DUP6 PUSH1 0x20 DUP7 ADD PUSH2 0xABC JUMP JUMPDEST PUSH2 0xF4A DUP2 PUSH2 0xAE6 JUMP JUMPDEST DUP5 ADD SWAP2 POP POP SWAP3 SWAP2 POP POP JUMP JUMPDEST PUSH1 0x0 PUSH1 0x80 DUP3 ADD SWAP1 POP PUSH2 0xF6A PUSH1 0x0 DUP4 ADD DUP8 PUSH2 0xE2F JUMP JUMPDEST DUP2 DUP2 SUB PUSH1 0x20 DUP4 ADD MSTORE PUSH2 0xF7C DUP2 DUP7 PUSH2 0xF1C JUMP JUMPDEST SWAP1 POP PUSH2 0xF8B PUSH1 0x40 DUP4 ADD DUP6 PUSH2 0xE2F JUMP JUMPDEST PUSH2 0xF98 PUSH1 0x60 DUP4 ADD DUP5 PUSH2 0xE2F JUMP JUMPDEST SWAP6 SWAP5 POP POP POP POP POP JUMP JUMPDEST PUSH1 0x0 DUP1 PUSH1 0x40 DUP4 DUP6 SUB SLT ISZERO PUSH2 0xFB8 JUMPI PUSH2 0xFB7 PUSH2 0xC55 JUMP JUMPDEST JUMPDEST PUSH1 0x0 PUSH2 0xFC6 DUP6 DUP3 DUP7 ADD PUSH2 0xDAB JUMP JUMPDEST SWAP3 POP POP PUSH1 0x20 PUSH2 0xFD7 DUP6 DUP3 DUP7 ADD PUSH2 0xDAB JUMP JUMPDEST SWAP2 POP POP SWAP3 POP SWAP3 SWAP1 POP JUMP JUMPDEST PUSH1 0x0 PUSH20 0xFFFFFFFFFFFFFFFFFFFFFFFFFFFFFFFFFFFFFFFF DUP3 AND SWAP1 POP SWAP2 SWAP1 POP JUMP JUMPDEST PUSH1 0x0 PUSH2 0x100C DUP3 PUSH2 0xFE1 JUMP JUMPDEST SWAP1 POP SWAP2 SWAP1 POP JUMP JUMPDEST PUSH2 0x101C DUP2 PUSH2 0x1001 JUMP JUMPDEST DUP3 MSTORE POP POP JUMP JUMPDEST PUSH1 0x0 PUSH1 0x20 DUP3 ADD SWAP1 POP PUSH2 0x1037 PUSH1 0x0 DUP4 ADD DUP5 PUSH2 0x1013 JUMP JUMPDEST SWAP3 SWAP2 POP POP JUMP JUMPDEST PUSH2 0x1046 DUP2 PUSH2 0x1001 JUMP JUMPDEST DUP2 EQ PUSH2 0x1051 JUMPI PUSH1 0x0 DUP1 REVERT JUMPDEST POP JUMP JUMPDEST PUSH1 0x0 DUP2 CALLDATALOAD SWAP1 POP PUSH2 0x1063 DUP2 PUSH2 0x103D JUMP JUMPDEST SWAP3 SWAP2 POP POP JUMP JUMPDEST PUSH1 0x0 PUSH1 0x20 DUP3 DUP5 SUB SLT ISZERO PUSH2 0x107F JUMPI PUSH2 0x107E PUSH2 0xC55 JUMP JUMPDEST JUMPDEST PUSH1 0x0 PUSH2 0x108D DUP5 DUP3 DUP6 ADD PUSH2 0x1054 JUMP JUMPDEST SWAP2 POP POP SWAP3 SWAP2 POP POP JUMP JUMPDEST PUSH32 0x4E487B7100000000000000000000000000000000000000000000000000000000 PUSH1 0x0 MSTORE PUSH1 0x11 PUSH1 0x4 MSTORE PUSH1 0x24 PUSH1 0x0 REVERT JUMPDEST PUSH1 0x0 PUSH2 0x10D0 DUP3 PUSH2 0xA87 JUMP JUMPDEST SWAP2 POP PUSH2 0x10DB DUP4 PUSH2 0xA87 JUMP JUMPDEST SWAP3 POP DUP3 DUP3 ADD SWAP1 POP DUP1 DUP3 GT ISZERO PUSH2 0x10F3 JUMPI PUSH2 0x10F2 PUSH2 0x1096 JUMP JUMPDEST JUMPDEST SWAP3 SWAP2 POP POP JUMP JUMPDEST PUSH32 0x4E487B7100000000000000000000000000000000000000000000000000000000 PUSH1 0x0 MSTORE PUSH1 0x22 PUSH1 0x4 MSTORE PUSH1 0x24 PUSH1 0x0 REVERT JUMPDEST PUSH1 0x0 PUSH1 0x2 DUP3 DIV SWAP1 POP PUSH1 0x1 DUP3 AND DUP1 PUSH2 0x1140 JUMPI PUSH1 0x7F DUP3 AND SWAP2 POP JUMPDEST PUSH1 0x20 DUP3 LT DUP2 SUB PUSH2 0x1153 JUMPI PUSH2 0x1152 PUSH2 0x10F9 JUMP JUMPDEST JUMPDEST POP SWAP2 SWAP1 POP JUMP JUMPDEST PUSH32 0x4E487B7100000000000000000000000000000000000000000000000000000000 PUSH1 0x0 MSTORE PUSH1 0x32 PUSH1 0x4 MSTORE PUSH1 0x24 PUSH1 0x0 REVERT JUMPDEST PUSH32 0x4F776E61626C653A2063616C6C6572206973206E6F7420746865206F776E6572 PUSH1 0x0 DUP3 ADD MSTORE POP JUMP JUMPDEST PUSH1 0x0 PUSH2 0x11BE PUSH1 0x20 DUP4 PUSH2 0xF0B JUMP JUMPDEST SWAP2 POP PUSH2 0x11C9 DUP3 PUSH2 0x1188 JUMP JUMPDEST PUSH1 0x20 DUP3 ADD SWAP1 POP SWAP2 SWAP1 POP JUMP JUMPDEST PUSH1 0x0 PUSH1 0x20 DUP3 ADD SWAP1 POP DUP2 DUP2 SUB PUSH1 0x0 DUP4 ADD MSTORE PUSH2 0x11ED DUP2 PUSH2 0x11B1 JUMP JUMPDEST SWAP1 POP SWAP2 SWAP1 POP JUMP JUMPDEST PUSH1 0x0 DUP2 SWAP1 POP DUP2 PUSH1 0x0 MSTORE PUSH1 0x20 PUSH1 0x0 KECCAK256 SWAP1 POP SWAP2 SWAP1 POP JUMP JUMPDEST PUSH1 0x0 PUSH1 0x20 PUSH1 0x1F DUP4 ADD DIV SWAP1 POP SWAP2 SWAP1 POP JUMP JUMPDEST PUSH1 0x0 DUP3 DUP3 SHL SWAP1 POP SWAP3 SWAP2 POP POP JUMP JUMPDEST PUSH1 0x0 PUSH1 0x8 DUP4 MUL PUSH2 0x1256 PUSH32 0xFFFFFFFFFFFFFFFFFFFFFFFFFFFFFFFFFFFFFFFFFFFFFFFFFFFFFFFFFFFFFFFF DUP3 PUSH2 0x1219 JUMP JUMPDEST PUSH2 0x1260 DUP7 DUP4 PUSH2 0x1219 JUMP JUMPDEST SWAP6 POP DUP1 NOT DUP5 AND SWAP4 POP DUP1 DUP7 AND DUP5 OR SWAP3 POP POP POP SWAP4 SWAP3 POP POP POP JUMP JUMPDEST PUSH1 0x0 DUP2 SWAP1 POP SWAP2 SWAP1 POP JUMP JUMPDEST PUSH1 0x0 PUSH2 0x129D PUSH2 0x1298 PUSH2 0x1293 DUP5 PUSH2 0xA87 JUMP JUMPDEST PUSH2 0x1278 JUMP JUMPDEST PUSH2 0xA87 JUMP JUMPDEST SWAP1 POP SWAP2 SWAP1 POP JUMP JUMPDEST PUSH1 0x0 DUP2 SWAP1 POP SWAP2 SWAP1 POP JUMP JUMPDEST PUSH2 0x12B7 DUP4 PUSH2 0x1282 JUMP JUMPDEST PUSH2 0x12CB PUSH2 0x12C3 DUP3 PUSH2 0x12A4 JUMP JUMPDEST DUP5 DUP5 SLOAD PUSH2 0x1226 JUMP JUMPDEST DUP3 SSTORE POP POP POP POP JUMP JUMPDEST PUSH1 0x0 SWAP1 JUMP JUMPDEST PUSH2 0x12E0 PUSH2 0x12D3 JUMP JUMPDEST PUSH2 0x12EB DUP2 DUP5 DUP5 PUSH2 0x12AE JUMP JUMPDEST POP POP POP JUMP JUMPDEST JUMPDEST DUP2 DUP2 LT ISZERO PUSH2 0x130F JUMPI PUSH2 0x1304 PUSH1 0x0 DUP3 PUSH2 0x12D8 JUMP JUMPDEST PUSH1 0x1 DUP2 ADD SWAP1 POP PUSH2 0x12F1 JUMP JUMPDEST POP POP JUMP JUMPDEST PUSH1 0x1F DUP3 GT ISZERO PUSH2 0x1354 JUMPI PUSH2 0x1325 DUP2 PUSH2 0x11F4 JUMP JUMPDEST PUSH2 0x132E DUP5 PUSH2 0x1209 JUMP JUMPDEST DUP2 ADD PUSH1 0x20 DUP6 LT ISZERO PUSH2 0x133D JUMPI DUP2 SWAP1 POP JUMPDEST PUSH2 0x1351 PUSH2 0x1349 DUP6 PUSH2 0x1209 JUMP JUMPDEST DUP4 ADD DUP3 PUSH2 0x12F0 JUMP JUMPDEST POP POP JUMPDEST POP POP POP JUMP JUMPDEST PUSH1 0x0 DUP3 DUP3 SHR SWAP1 POP SWAP3 SWAP2 POP POP JUMP JUMPDEST PUSH1 0x0 PUSH2 0x1377 PUSH1 0x0 NOT DUP5 PUSH1 0x8 MUL PUSH2 0x1359 JUMP JUMPDEST NOT DUP1 DUP4 AND SWAP2 POP POP SWAP3 SWAP2 POP POP JUMP JUMPDEST PUSH1 0x0 PUSH2 0x1390 DUP4 DUP4 PUSH2 0x1366 JUMP JUMPDEST SWAP2 POP DUP3 PUSH1 0x2 MUL DUP3 OR SWAP1 POP SWAP3 SWAP2 POP POP JUMP JUMPDEST PUSH2 0x13A9 DUP3 PUSH2 0xAA0 JUMP JUMPDEST PUSH8 0xFFFFFFFFFFFFFFFF DUP2 GT ISZERO PUSH2 0x13C2 JUMPI PUSH2 0x13C1 PUSH2 0xC69 JUMP JUMPDEST JUMPDEST PUSH2 0x13CC DUP3 SLOAD PUSH2 0x1128 JUMP JUMPDEST PUSH2 0x13D7 DUP3 DUP3 DUP6 PUSH2 0x1313 JUMP JUMPDEST PUSH1 0x0 PUSH1 0x20 SWAP1 POP PUSH1 0x1F DUP4 GT PUSH1 0x1 DUP2 EQ PUSH2 0x140A JUMPI PUSH1 0x0 DUP5 ISZERO PUSH2 0x13F8 JUMPI DUP3 DUP8 ADD MLOAD SWAP1 POP JUMPDEST PUSH2 0x1402 DUP6 DUP3 PUSH2 0x1384 JUMP JUMPDEST DUP7 SSTORE POP PUSH2 0x146A JUMP JUMPDEST PUSH1 0x1F NOT DUP5 AND PUSH2 0x1418 DUP7 PUSH2 0x11F4 JUMP JUMPDEST PUSH1 0x0 JUMPDEST DUP3 DUP2 LT ISZERO PUSH2 0x1440 JUMPI DUP5 DUP10 ADD MLOAD DUP3 SSTORE PUSH1 0x1 DUP3 ADD SWAP2 POP PUSH1 0x20 DUP6 ADD SWAP5 POP PUSH1 0x20 DUP2 ADD SWAP1 POP PUSH2 0x141B JUMP JUMPDEST DUP7 DUP4 LT ISZERO PUSH2 0x145D JUMPI DUP5 DUP10 ADD MLOAD PUSH2 0x1459 PUSH1 0x1F DUP10 AND DUP3 PUSH2 0x1366 JUMP JUMPDEST DUP4 SSTORE POP JUMPDEST PUSH1 0x1 PUSH1 0x2 DUP9 MUL ADD DUP9 SSTORE POP POP POP JUMPDEST POP POP POP POP POP POP JUMP JUMPDEST PUSH32 0x4A756761646F72206E6F20657869737465000000000000000000000000000000 PUSH1 0x0 DUP3 ADD MSTORE POP JUMP JUMPDEST PUSH1 0x0 PUSH2 0x14A8 PUSH1 0x11 DUP4 PUSH2 0xF0B JUMP JUMPDEST SWAP2 POP PUSH2 0x14B3 DUP3 PUSH2 0x1472 JUMP JUMPDEST PUSH1 0x20 DUP3 ADD SWAP1 POP SWAP2 SWAP1 POP JUMP JUMPDEST PUSH1 0x0 PUSH1 0x20 DUP3 ADD SWAP1 POP DUP2 DUP2 SUB PUSH1 0x0 DUP4 ADD MSTORE PUSH2 0x14D7 DUP2 PUSH2 0x149B JUMP JUMPDEST SWAP1 POP SWAP2 SWAP1 POP JUMP JUMPDEST PUSH32 0x4F776E61626C653A206E6577206F776E657220697320746865207A65726F2061 PUSH1 0x0 DUP3 ADD MSTORE PUSH32 0x6464726573730000000000000000000000000000000000000000000000000000 PUSH1 0x20 DUP3 ADD MSTORE POP JUMP JUMPDEST PUSH1 0x0 PUSH2 0x153A PUSH1 0x26 DUP4 PUSH2 0xF0B JUMP JUMPDEST SWAP2 POP PUSH2 0x1545 DUP3 PUSH2 0x14DE JUMP JUMPDEST PUSH1 0x40 DUP3 ADD SWAP1 POP SWAP2 SWAP1 POP JUMP JUMPDEST PUSH1 0x0 PUSH1 0x20 DUP3 ADD SWAP1 POP DUP2 DUP2 SUB PUSH1 0x0 DUP4 ADD MSTORE PUSH2 0x1569 DUP2 PUSH2 0x152D JUMP JUMPDEST SWAP1 POP SWAP2 SWAP1 POP JUMP INVALID LOG2 PUSH5 0x6970667358 0x22 SLT KECCAK256 STATICCALL DUP9 GT 0xBA EQ DUP12 PUSH13 0x22ACE4008C3D329766E8613370 DUP7 0xC2 0xED DUP4 0xAF SWAP9 CALLCODE ADD SMOD DUP7 0xAB CODESIZE PUSH5 0x736F6C6343 STOP ADDMOD XOR STOP CALLER "},"methodIdentifiers":{"addJugador(string,uint256,uint256)":"3c7f7509","buyBoleto(uint256,uint256)":"61ca0b35","getAllJugadores()":"12cd028d","getJugadorById(uint256)":"49480743","jugadores(uint256)":"4aead46c","owner()":"8da5cb5b","renounceOwnership()":"715018a6","transferOwnership(address)":"f2fde38b"}}}}}