{
  "_format": "hh-sol-artifact-1",
  "contractName": "Jugadores",
  "sourceName": "contracts/Jugador.sol",
  "abi": [
    {
      "anonymous": false,
      "inputs": [
        {
          "indexed": true,
          "internalType": "address",
          "name": "previousOwner",
          "type": "address"
        },
        {
          "indexed": true,
          "internalType": "address",
          "name": "newOwner",
          "type": "address"
        }
      ],
      "name": "OwnershipTransferred",
      "type": "event"
    },
    {
      "inputs": [
        {
          "internalType": "string",
          "name": "nombre",
          "type": "string"
        },
        {
          "internalType": "uint256",
          "name": "edad",
          "type": "uint256"
        },
        {
          "internalType": "uint256",
          "name": "cantidadBoletos",
          "type": "uint256"
        }
      ],
      "name": "addJugador",
      "outputs": [
        {
          "internalType": "uint256",
          "name": "",
          "type": "uint256"
        }
      ],
      "stateMutability": "nonpayable",
      "type": "function"
    },
    {
      "inputs": [
        {
          "internalType": "uint256",
          "name": "jugadorId",
          "type": "uint256"
        },
        {
          "internalType": "uint256",
          "name": "cantidad",
          "type": "uint256"
        }
      ],
      "name": "buyBoleto",
      "outputs": [],
      "stateMutability": "nonpayable",
      "type": "function"
    },
    {
      "inputs": [],
      "name": "getAllJugadores",
      "outputs": [
        {
          "components": [
            {
              "internalType": "uint256",
              "name": "jugadorId",
              "type": "uint256"
            },
            {
              "internalType": "string",
              "name": "nombre",
              "type": "string"
            },
            {
              "internalType": "uint256",
              "name": "edad",
              "type": "uint256"
            },
            {
              "internalType": "uint256",
              "name": "cantidadBoletos",
              "type": "uint256"
            }
          ],
          "internalType": "struct Jugadores.Jugador[]",
          "name": "",
          "type": "tuple[]"
        }
      ],
      "stateMutability": "view",
      "type": "function"
    },
    {
      "inputs": [
        {
          "internalType": "uint256",
          "name": "jugadorId",
          "type": "uint256"
        }
      ],
      "name": "getJugadorById",
      "outputs": [
        {
          "components": [
            {
              "internalType": "uint256",
              "name": "jugadorId",
              "type": "uint256"
            },
            {
              "internalType": "string",
              "name": "nombre",
              "type": "string"
            },
            {
              "internalType": "uint256",
              "name": "edad",
              "type": "uint256"
            },
            {
              "internalType": "uint256",
              "name": "cantidadBoletos",
              "type": "uint256"
            }
          ],
          "internalType": "struct Jugadores.Jugador",
          "name": "",
          "type": "tuple"
        }
      ],
      "stateMutability": "view",
      "type": "function"
    },
    {
      "inputs": [
        {
          "internalType": "uint256",
          "name": "",
          "type": "uint256"
        }
      ],
      "name": "jugadores",
      "outputs": [
        {
          "internalType": "uint256",
          "name": "jugadorId",
          "type": "uint256"
        },
        {
          "internalType": "string",
          "name": "nombre",
          "type": "string"
        },
        {
          "internalType": "uint256",
          "name": "edad",
          "type": "uint256"
        },
        {
          "internalType": "uint256",
          "name": "cantidadBoletos",
          "type": "uint256"
        }
      ],
      "stateMutability": "view",
      "type": "function"
    },
    {
      "inputs": [],
      "name": "owner",
      "outputs": [
        {
          "internalType": "address",
          "name": "",
          "type": "address"
        }
      ],
      "stateMutability": "view",
      "type": "function"
    },
    {
      "inputs": [],
      "name": "renounceOwnership",
      "outputs": [],
      "stateMutability": "nonpayable",
      "type": "function"
    },
    {
      "inputs": [
        {
          "internalType": "address",
          "name": "newOwner",
          "type": "address"
        }
      ],
      "name": "transferOwnership",
      "outputs": [],
      "stateMutability": "nonpayable",
      "type": "function"
    }
  ],
  "bytecode": "0x608060405234801561001057600080fd5b5060006100216100c460201b60201c565b9050806000806101000a81548173ffffffffffffffffffffffffffffffffffffffff021916908373ffffffffffffffffffffffffffffffffffffffff1602179055508073ffffffffffffffffffffffffffffffffffffffff16600073ffffffffffffffffffffffffffffffffffffffff167f8be0079c531659141344cd1fd0a4f28419497f9722a3daafe3b4186f6b6457e060405160405180910390a3506100cc565b600033905090565b6115a6806100db6000396000f3fe608060405234801561001057600080fd5b50600436106100885760003560e01c806361ca0b351161005b57806361ca0b351461013e578063715018a61461015a5780638da5cb5b14610164578063f2fde38b1461018257610088565b806312cd028d1461008d5780633c7f7509146100ab57806349480743146100db5780634aead46c1461010b575b600080fd5b61009561019e565b6040516100a29190610c29565b60405180910390f35b6100c560048036038101906100c09190610dc0565b610322565b6040516100d29190610e3e565b60405180910390f35b6100f560048036038101906100f09190610e59565b610434565b6040516101029190610ee9565b60405180910390f35b61012560048036038101906101209190610e59565b61055d565b6040516101359493929190610f55565b60405180910390f35b61015860048036038101906101539190610fa1565b610615565b005b6101626106fc565b005b61016c610836565b6040516101799190611022565b60405180910390f35b61019c60048036038101906101979190611069565b61085f565b005b606060006101ac6001610a07565b67ffffffffffffffff8111156101c5576101c4610c69565b5b6040519080825280602002602001820160405280156101fe57816020015b6101eb610a33565b8152602001906001900390816101e35790505b50905060005b61020e6001610a07565b81101561031a576002600060018361022691906110c5565b81526020019081526020016000206040518060800160405290816000820154815260200160018201805461025990611128565b80601f016020809104026020016040519081016040528092919081815260200182805461028590611128565b80156102d25780601f106102a7576101008083540402835291602001916102d2565b820191906000526020600020905b8154815290600101906020018083116102b557829003601f168201915b505050505081526020016002820154815260200160038201548152505082828151811061030257610301611159565b5b60200260200101819052508080600101915050610204565b508091505090565b600061032c610a15565b73ffffffffffffffffffffffffffffffffffffffff1661034a610836565b73ffffffffffffffffffffffffffffffffffffffff16146103a0576040517f08c379a0000000000000000000000000000000000000000000000000000000008152600401610397906111d4565b60405180910390fd5b6103aa6001610a1d565b60006103b66001610a07565b905060006040518060800160405280838152602001878152602001868152602001858152509050806002600084815260200190815260200160002060008201518160000155602082015181600101908161041091906113a0565b50604082015181600201556060820151816003015590505081925050509392505050565b61043c610a33565b6104466001610a07565b821115610488576040517f08c379a000000000000000000000000000000000000000000000000000000000815260040161047f906114be565b60405180910390fd5b60026000838152602001908152602001600020604051806080016040529081600082015481526020016001820180546104c090611128565b80601f01602080910402602001604051908101604052809291908181526020018280546104ec90611128565b80156105395780601f1061050e57610100808354040283529160200191610539565b820191906000526020600020905b81548152906001019060200180831161051c57829003601f168201915b50505050508152602001600282015481526020016003820154815250509050919050565b600260205280600052604060002060009150905080600001549080600101805461058690611128565b80601f01602080910402602001604051908101604052809291908181526020018280546105b290611128565b80156105ff5780601f106105d4576101008083540402835291602001916105ff565b820191906000526020600020905b8154815290600101906020018083116105e257829003601f168201915b5050505050908060020154908060030154905084565b61061d610a15565b73ffffffffffffffffffffffffffffffffffffffff1661063b610836565b73ffffffffffffffffffffffffffffffffffffffff1614610691576040517f08c379a0000000000000000000000000000000000000000000000000000000008152600401610688906111d4565b60405180910390fd5b61069b6001610a07565b8211156106dd576040517f08c379a00000000000000000000000000000000000000000000000000000000081526004016106d4906114be565b60405180910390fd5b8060026000848152602001908152602001600020600301819055505050565b610704610a15565b73ffffffffffffffffffffffffffffffffffffffff16610722610836565b73ffffffffffffffffffffffffffffffffffffffff1614610778576040517f08c379a000000000000000000000000000000000000000000000000000000000815260040161076f906111d4565b60405180910390fd5b600073ffffffffffffffffffffffffffffffffffffffff1660008054906101000a900473ffffffffffffffffffffffffffffffffffffffff1673ffffffffffffffffffffffffffffffffffffffff167f8be0079c531659141344cd1fd0a4f28419497f9722a3daafe3b4186f6b6457e060405160405180910390a360008060006101000a81548173ffffffffffffffffffffffffffffffffffffffff021916908373ffffffffffffffffffffffffffffffffffffffff160217905550565b60008060009054906101000a900473ffffffffffffffffffffffffffffffffffffffff16905090565b610867610a15565b73ffffffffffffffffffffffffffffffffffffffff16610885610836565b73ffffffffffffffffffffffffffffffffffffffff16146108db576040517f08c379a00000000000000000000000000000000000000000000000000000000081526004016108d2906111d4565b60405180910390fd5b600073ffffffffffffffffffffffffffffffffffffffff168173ffffffffffffffffffffffffffffffffffffffff160361094a576040517f08c379a000000000000000000000000000000000000000000000000000000000815260040161094190611550565b60405180910390fd5b8073ffffffffffffffffffffffffffffffffffffffff1660008054906101000a900473ffffffffffffffffffffffffffffffffffffffff1673ffffffffffffffffffffffffffffffffffffffff167f8be0079c531659141344cd1fd0a4f28419497f9722a3daafe3b4186f6b6457e060405160405180910390a3806000806101000a81548173ffffffffffffffffffffffffffffffffffffffff021916908373ffffffffffffffffffffffffffffffffffffffff16021790555050565b600081600001549050919050565b600033905090565b6001816000016000828254019250508190555050565b6040518060800160405280600081526020016060815260200160008152602001600081525090565b600081519050919050565b600082825260208201905092915050565b6000819050602082019050919050565b6000819050919050565b610a9a81610a87565b82525050565b600081519050919050565b600082825260208201905092915050565b60005b83811015610ada578082015181840152602081019050610abf565b60008484015250505050565b6000601f19601f8301169050919050565b6000610b0282610aa0565b610b0c8185610aab565b9350610b1c818560208601610abc565b610b2581610ae6565b840191505092915050565b6000608083016000830151610b486000860182610a91565b5060208301518482036020860152610b608282610af7565b9150506040830151610b756040860182610a91565b506060830151610b886060860182610a91565b508091505092915050565b6000610b9f8383610b30565b905092915050565b6000602082019050919050565b6000610bbf82610a5b565b610bc98185610a66565b935083602082028501610bdb85610a77565b8060005b85811015610c175784840389528151610bf88582610b93565b9450610c0383610ba7565b925060208a01995050600181019050610bdf565b50829750879550505050505092915050565b60006020820190508181036000830152610c438184610bb4565b905092915050565b6000604051905090565b600080fd5b600080fd5b600080fd5b600080fd5b7f4e487b7100000000000000000000000000000000000000000000000000000000600052604160045260246000fd5b610ca182610ae6565b810181811067ffffffffffffffff82111715610cc057610cbf610c69565b5b80604052505050565b6000610cd3610c4b565b9050610cdf8282610c98565b919050565b600067ffffffffffffffff821115610cff57610cfe610c69565b5b610d0882610ae6565b9050602081019050919050565b82818337600083830152505050565b6000610d37610d3284610ce4565b610cc9565b905082815260208101848484011115610d5357610d52610c64565b5b610d5e848285610d15565b509392505050565b600082601f830112610d7b57610d7a610c5f565b5b8135610d8b848260208601610d24565b91505092915050565b610d9d81610a87565b8114610da857600080fd5b50565b600081359050610dba81610d94565b92915050565b600080600060608486031215610dd957610dd8610c55565b5b600084013567ffffffffffffffff811115610df757610df6610c5a565b5b610e0386828701610d66565b9350506020610e1486828701610dab565b9250506040610e2586828701610dab565b9150509250925092565b610e3881610a87565b82525050565b6000602082019050610e536000830184610e2f565b92915050565b600060208284031215610e6f57610e6e610c55565b5b6000610e7d84828501610dab565b91505092915050565b6000608083016000830151610e9e6000860182610a91565b5060208301518482036020860152610eb68282610af7565b9150506040830151610ecb6040860182610a91565b506060830151610ede6060860182610a91565b508091505092915050565b60006020820190508181036000830152610f038184610e86565b905092915050565b600082825260208201905092915050565b6000610f2782610aa0565b610f318185610f0b565b9350610f41818560208601610abc565b610f4a81610ae6565b840191505092915050565b6000608082019050610f6a6000830187610e2f565b8181036020830152610f7c8186610f1c565b9050610f8b6040830185610e2f565b610f986060830184610e2f565b95945050505050565b60008060408385031215610fb857610fb7610c55565b5b6000610fc685828601610dab565b9250506020610fd785828601610dab565b9150509250929050565b600073ffffffffffffffffffffffffffffffffffffffff82169050919050565b600061100c82610fe1565b9050919050565b61101c81611001565b82525050565b60006020820190506110376000830184611013565b92915050565b61104681611001565b811461105157600080fd5b50565b6000813590506110638161103d565b92915050565b60006020828403121561107f5761107e610c55565b5b600061108d84828501611054565b91505092915050565b7f4e487b7100000000000000000000000000000000000000000000000000000000600052601160045260246000fd5b60006110d082610a87565b91506110db83610a87565b92508282019050808211156110f3576110f2611096565b5b92915050565b7f4e487b7100000000000000000000000000000000000000000000000000000000600052602260045260246000fd5b6000600282049050600182168061114057607f821691505b602082108103611153576111526110f9565b5b50919050565b7f4e487b7100000000000000000000000000000000000000000000000000000000600052603260045260246000fd5b7f4f776e61626c653a2063616c6c6572206973206e6f7420746865206f776e6572600082015250565b60006111be602083610f0b565b91506111c982611188565b602082019050919050565b600060208201905081810360008301526111ed816111b1565b9050919050565b60008190508160005260206000209050919050565b60006020601f8301049050919050565b600082821b905092915050565b6000600883026112567fffffffffffffffffffffffffffffffffffffffffffffffffffffffffffffffff82611219565b6112608683611219565b95508019841693508086168417925050509392505050565b6000819050919050565b600061129d61129861129384610a87565b611278565b610a87565b9050919050565b6000819050919050565b6112b783611282565b6112cb6112c3826112a4565b848454611226565b825550505050565b600090565b6112e06112d3565b6112eb8184846112ae565b505050565b5b8181101561130f576113046000826112d8565b6001810190506112f1565b5050565b601f82111561135457611325816111f4565b61132e84611209565b8101602085101561133d578190505b61135161134985611209565b8301826112f0565b50505b505050565b600082821c905092915050565b600061137760001984600802611359565b1980831691505092915050565b60006113908383611366565b9150826002028217905092915050565b6113a982610aa0565b67ffffffffffffffff8111156113c2576113c1610c69565b5b6113cc8254611128565b6113d7828285611313565b600060209050601f83116001811461140a57600084156113f8578287015190505b6114028582611384565b86555061146a565b601f198416611418866111f4565b60005b828110156114405784890151825560018201915060208501945060208101905061141b565b8683101561145d5784890151611459601f891682611366565b8355505b6001600288020188555050505b505050505050565b7f4a756761646f72206e6f20657869737465000000000000000000000000000000600082015250565b60006114a8601183610f0b565b91506114b382611472565b602082019050919050565b600060208201905081810360008301526114d78161149b565b9050919050565b7f4f776e61626c653a206e6577206f776e657220697320746865207a65726f206160008201527f6464726573730000000000000000000000000000000000000000000000000000602082015250565b600061153a602683610f0b565b9150611545826114de565b604082019050919050565b600060208201905081810360008301526115698161152d565b905091905056fea2646970667358221220fa8811ba148b6c22ace4008c3d329766e861337086c2ed83af98f2010786ab3864736f6c63430008180033",
  "linkReferences": {},
  "deployedLinkReferences": {}
}