{
  "_format": "hh-sol-artifact-1",
  "contractName": "Loterias",
  "sourceName": "contracts/Loteria.sol",
  "abi": [
    {
      "anonymous": false,
      "inputs": [
        {
          "indexed": true,
          "internalType": "address",
          "name": "previousOwner",
          "type": "address"
        },
        {
          "indexed": true,
          "internalType": "address",
          "name": "newOwner",
          "type": "address"
        }
      ],
      "name": "OwnershipTransferred",
      "type": "event"
    },
    {
      "inputs": [
        {
          "internalType": "string",
          "name": "nombreLoteria",
          "type": "string"
        },
        {
          "internalType": "string",
          "name": "nombreCreador",
          "type": "string"
        }
      ],
      "name": "addLoteria",
      "outputs": [
        {
          "internalType": "uint256",
          "name": "",
          "type": "uint256"
        }
      ],
      "stateMutability": "nonpayable",
      "type": "function"
    },
    {
      "inputs": [
        {
          "internalType": "uint256",
          "name": "loteriaId",
          "type": "uint256"
        },
        {
          "internalType": "string",
          "name": "nombre",
          "type": "string"
        }
      ],
      "name": "changeNombre",
      "outputs": [],
      "stateMutability": "nonpayable",
      "type": "function"
    },
    {
      "inputs": [],
      "name": "getAllLoterias",
      "outputs": [
        {
          "components": [
            {
              "internalType": "uint256",
              "name": "loteriaId",
              "type": "uint256"
            },
            {
              "internalType": "string",
              "name": "nombreLoteria",
              "type": "string"
            },
            {
              "internalType": "string",
              "name": "nombreCreador",
              "type": "string"
            }
          ],
          "internalType": "struct Loterias.Loteria[]",
          "name": "",
          "type": "tuple[]"
        }
      ],
      "stateMutability": "view",
      "type": "function"
    },
    {
      "inputs": [
        {
          "internalType": "uint256",
          "name": "loteriaId",
          "type": "uint256"
        }
      ],
      "name": "getLoteriaById",
      "outputs": [
        {
          "components": [
            {
              "internalType": "uint256",
              "name": "loteriaId",
              "type": "uint256"
            },
            {
              "internalType": "string",
              "name": "nombreLoteria",
              "type": "string"
            },
            {
              "internalType": "string",
              "name": "nombreCreador",
              "type": "string"
            }
          ],
          "internalType": "struct Loterias.Loteria",
          "name": "",
          "type": "tuple"
        }
      ],
      "stateMutability": "view",
      "type": "function"
    },
    {
      "inputs": [
        {
          "internalType": "uint256",
          "name": "",
          "type": "uint256"
        }
      ],
      "name": "loterias",
      "outputs": [
        {
          "internalType": "uint256",
          "name": "loteriaId",
          "type": "uint256"
        },
        {
          "internalType": "string",
          "name": "nombreLoteria",
          "type": "string"
        },
        {
          "internalType": "string",
          "name": "nombreCreador",
          "type": "string"
        }
      ],
      "stateMutability": "view",
      "type": "function"
    },
    {
      "inputs": [],
      "name": "owner",
      "outputs": [
        {
          "internalType": "address",
          "name": "",
          "type": "address"
        }
      ],
      "stateMutability": "view",
      "type": "function"
    },
    {
      "inputs": [],
      "name": "renounceOwnership",
      "outputs": [],
      "stateMutability": "nonpayable",
      "type": "function"
    },
    {
      "inputs": [
        {
          "internalType": "address",
          "name": "newOwner",
          "type": "address"
        }
      ],
      "name": "transferOwnership",
      "outputs": [],
      "stateMutability": "nonpayable",
      "type": "function"
    }
  ],
  "bytecode": "0x608060405234801561001057600080fd5b5060006100216100c460201b60201c565b9050806000806101000a81548173ffffffffffffffffffffffffffffffffffffffff021916908373ffffffffffffffffffffffffffffffffffffffff1602179055508073ffffffffffffffffffffffffffffffffffffffff16600073ffffffffffffffffffffffffffffffffffffffff167f8be0079c531659141344cd1fd0a4f28419497f9722a3daafe3b4186f6b6457e060405160405180910390a3506100cc565b600033905090565b611726806100db6000396000f3fe608060405234801561001057600080fd5b50600436106100885760003560e01c80638da5cb5b1161005b5780638da5cb5b14610117578063a452303914610135578063f2fde38b14610151578063fa6635461461016d57610088565b80634f2280b61461008d578063715018a6146100bd57806376fa1ae0146100c7578063822661bf146100e5575b600080fd5b6100a760048036038101906100a29190610d2f565b61019d565b6040516100b49190610dc0565b60405180910390f35b6100c56102aa565b005b6100cf6103e4565b6040516100dc9190610f82565b60405180910390f35b6100ff60048036038101906100fa9190610fd0565b6105e6565b60405161010e93929190611047565b60405180910390f35b61011f610720565b60405161012c91906110cd565b60405180910390f35b61014f600480360381019061014a91906110e8565b610749565b005b61016b60048036038101906101669190611170565b610839565b005b61018760048036038101906101829190610fd0565b6109e1565b60405161019491906111f4565b60405180910390f35b60006101a7610b88565b73ffffffffffffffffffffffffffffffffffffffff166101c5610720565b73ffffffffffffffffffffffffffffffffffffffff161461021b576040517f08c379a000000000000000000000000000000000000000000000000000000000815260040161021290611262565b60405180910390fd5b6102256001610b90565b60006102316001610ba6565b9050600060405180606001604052808381526020018681526020018581525090508060026000848152602001908152602001600020600082015181600001556020820151816001019081610285919061148e565b50604082015181600201908161029b919061148e565b50905050819250505092915050565b6102b2610b88565b73ffffffffffffffffffffffffffffffffffffffff166102d0610720565b73ffffffffffffffffffffffffffffffffffffffff1614610326576040517f08c379a000000000000000000000000000000000000000000000000000000000815260040161031d90611262565b60405180910390fd5b600073ffffffffffffffffffffffffffffffffffffffff1660008054906101000a900473ffffffffffffffffffffffffffffffffffffffff1673ffffffffffffffffffffffffffffffffffffffff167f8be0079c531659141344cd1fd0a4f28419497f9722a3daafe3b4186f6b6457e060405160405180910390a360008060006101000a81548173ffffffffffffffffffffffffffffffffffffffff021916908373ffffffffffffffffffffffffffffffffffffffff160217905550565b606060006103f26001610ba6565b67ffffffffffffffff81111561040b5761040a610c04565b5b60405190808252806020026020018201604052801561044457816020015b610431610bb4565b8152602001906001900390816104295790505b50905060005b6104546001610ba6565b8110156105de576002600060018361046c919061158f565b81526020019081526020016000206040518060600160405290816000820154815260200160018201805461049f906112b1565b80601f01602080910402602001604051908101604052809291908181526020018280546104cb906112b1565b80156105185780601f106104ed57610100808354040283529160200191610518565b820191906000526020600020905b8154815290600101906020018083116104fb57829003601f168201915b50505050508152602001600282018054610531906112b1565b80601f016020809104026020016040519081016040528092919081815260200182805461055d906112b1565b80156105aa5780601f1061057f576101008083540402835291602001916105aa565b820191906000526020600020905b81548152906001019060200180831161058d57829003601f168201915b5050505050815250508282815181106105c6576105c56115c3565b5b6020026020010181905250808060010191505061044a565b508091505090565b600260205280600052604060002060009150905080600001549080600101805461060f906112b1565b80601f016020809104026020016040519081016040528092919081815260200182805461063b906112b1565b80156106885780601f1061065d57610100808354040283529160200191610688565b820191906000526020600020905b81548152906001019060200180831161066b57829003601f168201915b50505050509080600201805461069d906112b1565b80601f01602080910402602001604051908101604052809291908181526020018280546106c9906112b1565b80156107165780601f106106eb57610100808354040283529160200191610716565b820191906000526020600020905b8154815290600101906020018083116106f957829003601f168201915b5050505050905083565b60008060009054906101000a900473ffffffffffffffffffffffffffffffffffffffff16905090565b610751610b88565b73ffffffffffffffffffffffffffffffffffffffff1661076f610720565b73ffffffffffffffffffffffffffffffffffffffff16146107c5576040517f08c379a00000000000000000000000000000000000000000000000000000000081526004016107bc90611262565b60405180910390fd5b6107cf6001610ba6565b821115610811576040517f08c379a00000000000000000000000000000000000000000000000000000000081526004016108089061163e565b60405180910390fd5b80600260008481526020019081526020016000206001019081610834919061148e565b505050565b610841610b88565b73ffffffffffffffffffffffffffffffffffffffff1661085f610720565b73ffffffffffffffffffffffffffffffffffffffff16146108b5576040517f08c379a00000000000000000000000000000000000000000000000000000000081526004016108ac90611262565b60405180910390fd5b600073ffffffffffffffffffffffffffffffffffffffff168173ffffffffffffffffffffffffffffffffffffffff1603610924576040517f08c379a000000000000000000000000000000000000000000000000000000000815260040161091b906116d0565b60405180910390fd5b8073ffffffffffffffffffffffffffffffffffffffff1660008054906101000a900473ffffffffffffffffffffffffffffffffffffffff1673ffffffffffffffffffffffffffffffffffffffff167f8be0079c531659141344cd1fd0a4f28419497f9722a3daafe3b4186f6b6457e060405160405180910390a3806000806101000a81548173ffffffffffffffffffffffffffffffffffffffff021916908373ffffffffffffffffffffffffffffffffffffffff16021790555050565b6109e9610bb4565b6109f36001610ba6565b821115610a35576040517f08c379a0000000000000000000000000000000000000000000000000000000008152600401610a2c9061163e565b60405180910390fd5b6002600083815260200190815260200160002060405180606001604052908160008201548152602001600182018054610a6d906112b1565b80601f0160208091040260200160405190810160405280929190818152602001828054610a99906112b1565b8015610ae65780601f10610abb57610100808354040283529160200191610ae6565b820191906000526020600020905b815481529060010190602001808311610ac957829003601f168201915b50505050508152602001600282018054610aff906112b1565b80601f0160208091040260200160405190810160405280929190818152602001828054610b2b906112b1565b8015610b785780601f10610b4d57610100808354040283529160200191610b78565b820191906000526020600020905b815481529060010190602001808311610b5b57829003601f168201915b5050505050815250509050919050565b600033905090565b6001816000016000828254019250508190555050565b600081600001549050919050565b60405180606001604052806000815260200160608152602001606081525090565b6000604051905090565b600080fd5b600080fd5b600080fd5b600080fd5b6000601f19601f8301169050919050565b7f4e487b7100000000000000000000000000000000000000000000000000000000600052604160045260246000fd5b610c3c82610bf3565b810181811067ffffffffffffffff82111715610c5b57610c5a610c04565b5b80604052505050565b6000610c6e610bd5565b9050610c7a8282610c33565b919050565b600067ffffffffffffffff821115610c9a57610c99610c04565b5b610ca382610bf3565b9050602081019050919050565b82818337600083830152505050565b6000610cd2610ccd84610c7f565b610c64565b905082815260208101848484011115610cee57610ced610bee565b5b610cf9848285610cb0565b509392505050565b600082601f830112610d1657610d15610be9565b5b8135610d26848260208601610cbf565b91505092915050565b60008060408385031215610d4657610d45610bdf565b5b600083013567ffffffffffffffff811115610d6457610d63610be4565b5b610d7085828601610d01565b925050602083013567ffffffffffffffff811115610d9157610d90610be4565b5b610d9d85828601610d01565b9150509250929050565b6000819050919050565b610dba81610da7565b82525050565b6000602082019050610dd56000830184610db1565b92915050565b600081519050919050565b600082825260208201905092915050565b6000819050602082019050919050565b610e1081610da7565b82525050565b600081519050919050565b600082825260208201905092915050565b60005b83811015610e50578082015181840152602081019050610e35565b60008484015250505050565b6000610e6782610e16565b610e718185610e21565b9350610e81818560208601610e32565b610e8a81610bf3565b840191505092915050565b6000606083016000830151610ead6000860182610e07565b5060208301518482036020860152610ec58282610e5c565b91505060408301518482036040860152610edf8282610e5c565b9150508091505092915050565b6000610ef88383610e95565b905092915050565b6000602082019050919050565b6000610f1882610ddb565b610f228185610de6565b935083602082028501610f3485610df7565b8060005b85811015610f705784840389528151610f518582610eec565b9450610f5c83610f00565b925060208a01995050600181019050610f38565b50829750879550505050505092915050565b60006020820190508181036000830152610f9c8184610f0d565b905092915050565b610fad81610da7565b8114610fb857600080fd5b50565b600081359050610fca81610fa4565b92915050565b600060208284031215610fe657610fe5610bdf565b5b6000610ff484828501610fbb565b91505092915050565b600082825260208201905092915050565b600061101982610e16565b6110238185610ffd565b9350611033818560208601610e32565b61103c81610bf3565b840191505092915050565b600060608201905061105c6000830186610db1565b818103602083015261106e818561100e565b90508181036040830152611082818461100e565b9050949350505050565b600073ffffffffffffffffffffffffffffffffffffffff82169050919050565b60006110b78261108c565b9050919050565b6110c7816110ac565b82525050565b60006020820190506110e260008301846110be565b92915050565b600080604083850312156110ff576110fe610bdf565b5b600061110d85828601610fbb565b925050602083013567ffffffffffffffff81111561112e5761112d610be4565b5b61113a85828601610d01565b9150509250929050565b61114d816110ac565b811461115857600080fd5b50565b60008135905061116a81611144565b92915050565b60006020828403121561118657611185610bdf565b5b60006111948482850161115b565b91505092915050565b60006060830160008301516111b56000860182610e07565b50602083015184820360208601526111cd8282610e5c565b915050604083015184820360408601526111e78282610e5c565b9150508091505092915050565b6000602082019050818103600083015261120e818461119d565b905092915050565b7f4f776e61626c653a2063616c6c6572206973206e6f7420746865206f776e6572600082015250565b600061124c602083610ffd565b915061125782611216565b602082019050919050565b6000602082019050818103600083015261127b8161123f565b9050919050565b7f4e487b7100000000000000000000000000000000000000000000000000000000600052602260045260246000fd5b600060028204905060018216806112c957607f821691505b6020821081036112dc576112db611282565b5b50919050565b60008190508160005260206000209050919050565b60006020601f8301049050919050565b600082821b905092915050565b6000600883026113447fffffffffffffffffffffffffffffffffffffffffffffffffffffffffffffffff82611307565b61134e8683611307565b95508019841693508086168417925050509392505050565b6000819050919050565b600061138b61138661138184610da7565b611366565b610da7565b9050919050565b6000819050919050565b6113a583611370565b6113b96113b182611392565b848454611314565b825550505050565b600090565b6113ce6113c1565b6113d981848461139c565b505050565b5b818110156113fd576113f26000826113c6565b6001810190506113df565b5050565b601f82111561144257611413816112e2565b61141c846112f7565b8101602085101561142b578190505b61143f611437856112f7565b8301826113de565b50505b505050565b600082821c905092915050565b600061146560001984600802611447565b1980831691505092915050565b600061147e8383611454565b9150826002028217905092915050565b61149782610e16565b67ffffffffffffffff8111156114b0576114af610c04565b5b6114ba82546112b1565b6114c5828285611401565b600060209050601f8311600181146114f857600084156114e6578287015190505b6114f08582611472565b865550611558565b601f198416611506866112e2565b60005b8281101561152e57848901518255600182019150602085019450602081019050611509565b8683101561154b5784890151611547601f891682611454565b8355505b6001600288020188555050505b505050505050565b7f4e487b7100000000000000000000000000000000000000000000000000000000600052601160045260246000fd5b600061159a82610da7565b91506115a583610da7565b92508282019050808211156115bd576115bc611560565b5b92915050565b7f4e487b7100000000000000000000000000000000000000000000000000000000600052603260045260246000fd5b7f4c6f7465726961206e6f20657869737465000000000000000000000000000000600082015250565b6000611628601183610ffd565b9150611633826115f2565b602082019050919050565b600060208201905081810360008301526116578161161b565b9050919050565b7f4f776e61626c653a206e6577206f776e657220697320746865207a65726f206160008201527f6464726573730000000000000000000000000000000000000000000000000000602082015250565b60006116ba602683610ffd565b91506116c58261165e565b604082019050919050565b600060208201905081810360008301526116e9816116ad565b905091905056fea26469706673582212206772a9661fcd7c74359a2a3218ad9e92290ab9725a7cbbe2b42fff957488042c64736f6c63430008180033",
  "linkReferences": {},
  "deployedLinkReferences": {}
}