{
  "_format": "hh-sol-artifact-1",
  "contractName": "Boletos",
  "sourceName": "contracts/Boletos.sol",
  "abi": [
    {
      "anonymous": false,
      "inputs": [
        {
          "indexed": true,
          "internalType": "address",
          "name": "previousOwner",
          "type": "address"
        },
        {
          "indexed": true,
          "internalType": "address",
          "name": "newOwner",
          "type": "address"
        }
      ],
      "name": "OwnershipTransferred",
      "type": "event"
    },
    {
      "inputs": [
        {
          "internalType": "string",
          "name": "denominacion",
          "type": "string"
        },
        {
          "internalType": "uint256",
          "name": "jugadorId",
          "type": "uint256"
        },
        {
          "internalType": "uint256",
          "name": "loteriaId",
          "type": "uint256"
        }
      ],
      "name": "addBoleto",
      "outputs": [
        {
          "internalType": "uint256",
          "name": "",
          "type": "uint256"
        }
      ],
      "stateMutability": "nonpayable",
      "type": "function"
    },
    {
      "inputs": [
        {
          "internalType": "uint256",
          "name": "",
          "type": "uint256"
        }
      ],
      "name": "boletos",
      "outputs": [
        {
          "internalType": "uint256",
          "name": "boletoId",
          "type": "uint256"
        },
        {
          "internalType": "string",
          "name": "denominacion",
          "type": "string"
        },
        {
          "internalType": "uint256",
          "name": "jugadorId",
          "type": "uint256"
        },
        {
          "internalType": "uint256",
          "name": "loteriaId",
          "type": "uint256"
        }
      ],
      "stateMutability": "view",
      "type": "function"
    },
    {
      "inputs": [],
      "name": "getAllBoletos",
      "outputs": [
        {
          "components": [
            {
              "internalType": "uint256",
              "name": "boletoId",
              "type": "uint256"
            },
            {
              "internalType": "string",
              "name": "denominacion",
              "type": "string"
            },
            {
              "internalType": "uint256",
              "name": "jugadorId",
              "type": "uint256"
            },
            {
              "internalType": "uint256",
              "name": "loteriaId",
              "type": "uint256"
            }
          ],
          "internalType": "struct Boletos.Boleto[]",
          "name": "",
          "type": "tuple[]"
        }
      ],
      "stateMutability": "view",
      "type": "function"
    },
    {
      "inputs": [],
      "name": "owner",
      "outputs": [
        {
          "internalType": "address",
          "name": "",
          "type": "address"
        }
      ],
      "stateMutability": "view",
      "type": "function"
    },
    {
      "inputs": [],
      "name": "renounceOwnership",
      "outputs": [],
      "stateMutability": "nonpayable",
      "type": "function"
    },
    {
      "inputs": [
        {
          "internalType": "address",
          "name": "newOwner",
          "type": "address"
        }
      ],
      "name": "transferOwnership",
      "outputs": [],
      "stateMutability": "nonpayable",
      "type": "function"
    }
  ],
  "bytecode": "0x608060405234801561001057600080fd5b5060006100216100c460201b60201c565b9050806000806101000a81548173ffffffffffffffffffffffffffffffffffffffff021916908373ffffffffffffffffffffffffffffffffffffffff1602179055508073ffffffffffffffffffffffffffffffffffffffff16600073ffffffffffffffffffffffffffffffffffffffff167f8be0079c531659141344cd1fd0a4f28419497f9722a3daafe3b4186f6b6457e060405160405180910390a3506100cc565b600033905090565b6111f3806100db6000396000f3fe608060405234801561001057600080fd5b50600436106100625760003560e01c80630e73c1a714610067578063715018a614610085578063857a40b71461008f5780638da5cb5b146100bf578063d1eeaefb146100dd578063f2fde38b14610110575b600080fd5b61006f61012c565b60405161007c91906109a7565b60405180910390f35b61008d6102b0565b005b6100a960048036038101906100a49190610b3e565b6103ea565b6040516100b69190610bbc565b60405180910390f35b6100c76104fc565b6040516100d49190610c18565b60405180910390f35b6100f760048036038101906100f29190610c33565b610525565b6040516101079493929190610caa565b60405180910390f35b61012a60048036038101906101259190610d22565b6105dd565b005b6060600061013a6001610785565b67ffffffffffffffff811115610153576101526109e7565b5b60405190808252806020026020018201604052801561018c57816020015b6101796107b1565b8152602001906001900390816101715790505b50905060005b61019c6001610785565b8110156102a857600260006001836101b49190610d7e565b8152602001908152602001600020604051806080016040529081600082015481526020016001820180546101e790610de1565b80601f016020809104026020016040519081016040528092919081815260200182805461021390610de1565b80156102605780601f1061023557610100808354040283529160200191610260565b820191906000526020600020905b81548152906001019060200180831161024357829003601f168201915b50505050508152602001600282015481526020016003820154815250508282815181106102905761028f610e12565b5b60200260200101819052508080600101915050610192565b508091505090565b6102b8610793565b73ffffffffffffffffffffffffffffffffffffffff166102d66104fc565b73ffffffffffffffffffffffffffffffffffffffff161461032c576040517f08c379a000000000000000000000000000000000000000000000000000000000815260040161032390610e8d565b60405180910390fd5b600073ffffffffffffffffffffffffffffffffffffffff1660008054906101000a900473ffffffffffffffffffffffffffffffffffffffff1673ffffffffffffffffffffffffffffffffffffffff167f8be0079c531659141344cd1fd0a4f28419497f9722a3daafe3b4186f6b6457e060405160405180910390a360008060006101000a81548173ffffffffffffffffffffffffffffffffffffffff021916908373ffffffffffffffffffffffffffffffffffffffff160217905550565b60006103f4610793565b73ffffffffffffffffffffffffffffffffffffffff166104126104fc565b73ffffffffffffffffffffffffffffffffffffffff1614610468576040517f08c379a000000000000000000000000000000000000000000000000000000000815260040161045f90610e8d565b60405180910390fd5b610472600161079b565b600061047e6001610785565b90506000604051806080016040528083815260200187815260200186815260200185815250905080600260008481526020019081526020016000206000820151816000015560208201518160010190816104d89190611059565b50604082015181600201556060820151816003015590505081925050509392505050565b60008060009054906101000a900473ffffffffffffffffffffffffffffffffffffffff16905090565b600260205280600052604060002060009150905080600001549080600101805461054e90610de1565b80601f016020809104026020016040519081016040528092919081815260200182805461057a90610de1565b80156105c75780601f1061059c576101008083540402835291602001916105c7565b820191906000526020600020905b8154815290600101906020018083116105aa57829003601f168201915b5050505050908060020154908060030154905084565b6105e5610793565b73ffffffffffffffffffffffffffffffffffffffff166106036104fc565b73ffffffffffffffffffffffffffffffffffffffff1614610659576040517f08c379a000000000000000000000000000000000000000000000000000000000815260040161065090610e8d565b60405180910390fd5b600073ffffffffffffffffffffffffffffffffffffffff168173ffffffffffffffffffffffffffffffffffffffff16036106c8576040517f08c379a00000000000000000000000000000000000000000000000000000000081526004016106bf9061119d565b60405180910390fd5b8073ffffffffffffffffffffffffffffffffffffffff1660008054906101000a900473ffffffffffffffffffffffffffffffffffffffff1673ffffffffffffffffffffffffffffffffffffffff167f8be0079c531659141344cd1fd0a4f28419497f9722a3daafe3b4186f6b6457e060405160405180910390a3806000806101000a81548173ffffffffffffffffffffffffffffffffffffffff021916908373ffffffffffffffffffffffffffffffffffffffff16021790555050565b600081600001549050919050565b600033905090565b6001816000016000828254019250508190555050565b6040518060800160405280600081526020016060815260200160008152602001600081525090565b600081519050919050565b600082825260208201905092915050565b6000819050602082019050919050565b6000819050919050565b61081881610805565b82525050565b600081519050919050565b600082825260208201905092915050565b60005b8381101561085857808201518184015260208101905061083d565b60008484015250505050565b6000601f19601f8301169050919050565b60006108808261081e565b61088a8185610829565b935061089a81856020860161083a565b6108a381610864565b840191505092915050565b60006080830160008301516108c6600086018261080f565b50602083015184820360208601526108de8282610875565b91505060408301516108f3604086018261080f565b506060830151610906606086018261080f565b508091505092915050565b600061091d83836108ae565b905092915050565b6000602082019050919050565b600061093d826107d9565b61094781856107e4565b935083602082028501610959856107f5565b8060005b8581101561099557848403895281516109768582610911565b945061098183610925565b925060208a0199505060018101905061095d565b50829750879550505050505092915050565b600060208201905081810360008301526109c18184610932565b905092915050565b6000604051905090565b600080fd5b600080fd5b600080fd5b600080fd5b7f4e487b7100000000000000000000000000000000000000000000000000000000600052604160045260246000fd5b610a1f82610864565b810181811067ffffffffffffffff82111715610a3e57610a3d6109e7565b5b80604052505050565b6000610a516109c9565b9050610a5d8282610a16565b919050565b600067ffffffffffffffff821115610a7d57610a7c6109e7565b5b610a8682610864565b9050602081019050919050565b82818337600083830152505050565b6000610ab5610ab084610a62565b610a47565b905082815260208101848484011115610ad157610ad06109e2565b5b610adc848285610a93565b509392505050565b600082601f830112610af957610af86109dd565b5b8135610b09848260208601610aa2565b91505092915050565b610b1b81610805565b8114610b2657600080fd5b50565b600081359050610b3881610b12565b92915050565b600080600060608486031215610b5757610b566109d3565b5b600084013567ffffffffffffffff811115610b7557610b746109d8565b5b610b8186828701610ae4565b9350506020610b9286828701610b29565b9250506040610ba386828701610b29565b9150509250925092565b610bb681610805565b82525050565b6000602082019050610bd16000830184610bad565b92915050565b600073ffffffffffffffffffffffffffffffffffffffff82169050919050565b6000610c0282610bd7565b9050919050565b610c1281610bf7565b82525050565b6000602082019050610c2d6000830184610c09565b92915050565b600060208284031215610c4957610c486109d3565b5b6000610c5784828501610b29565b91505092915050565b600082825260208201905092915050565b6000610c7c8261081e565b610c868185610c60565b9350610c9681856020860161083a565b610c9f81610864565b840191505092915050565b6000608082019050610cbf6000830187610bad565b8181036020830152610cd18186610c71565b9050610ce06040830185610bad565b610ced6060830184610bad565b95945050505050565b610cff81610bf7565b8114610d0a57600080fd5b50565b600081359050610d1c81610cf6565b92915050565b600060208284031215610d3857610d376109d3565b5b6000610d4684828501610d0d565b91505092915050565b7f4e487b7100000000000000000000000000000000000000000000000000000000600052601160045260246000fd5b6000610d8982610805565b9150610d9483610805565b9250828201905080821115610dac57610dab610d4f565b5b92915050565b7f4e487b7100000000000000000000000000000000000000000000000000000000600052602260045260246000fd5b60006002820490506001821680610df957607f821691505b602082108103610e0c57610e0b610db2565b5b50919050565b7f4e487b7100000000000000000000000000000000000000000000000000000000600052603260045260246000fd5b7f4f776e61626c653a2063616c6c6572206973206e6f7420746865206f776e6572600082015250565b6000610e77602083610c60565b9150610e8282610e41565b602082019050919050565b60006020820190508181036000830152610ea681610e6a565b9050919050565b60008190508160005260206000209050919050565b60006020601f8301049050919050565b600082821b905092915050565b600060088302610f0f7fffffffffffffffffffffffffffffffffffffffffffffffffffffffffffffffff82610ed2565b610f198683610ed2565b95508019841693508086168417925050509392505050565b6000819050919050565b6000610f56610f51610f4c84610805565b610f31565b610805565b9050919050565b6000819050919050565b610f7083610f3b565b610f84610f7c82610f5d565b848454610edf565b825550505050565b600090565b610f99610f8c565b610fa4818484610f67565b505050565b5b81811015610fc857610fbd600082610f91565b600181019050610faa565b5050565b601f82111561100d57610fde81610ead565b610fe784610ec2565b81016020851015610ff6578190505b61100a61100285610ec2565b830182610fa9565b50505b505050565b600082821c905092915050565b600061103060001984600802611012565b1980831691505092915050565b6000611049838361101f565b9150826002028217905092915050565b6110628261081e565b67ffffffffffffffff81111561107b5761107a6109e7565b5b6110858254610de1565b611090828285610fcc565b600060209050601f8311600181146110c357600084156110b1578287015190505b6110bb858261103d565b865550611123565b601f1984166110d186610ead565b60005b828110156110f9578489015182556001820191506020850194506020810190506110d4565b868310156111165784890151611112601f89168261101f565b8355505b6001600288020188555050505b505050505050565b7f4f776e61626c653a206e6577206f776e657220697320746865207a65726f206160008201527f6464726573730000000000000000000000000000000000000000000000000000602082015250565b6000611187602683610c60565b91506111928261112b565b604082019050919050565b600060208201905081810360008301526111b68161117a565b905091905056fea2646970667358221220a946002d0f1f6e5cc5ff4fbf5d589211aff440b0bd9e1ec701f2d47108794f6b64736f6c63430008180033",
  "linkReferences": {},
  "deployedLinkReferences": {}
}